:020000040800F2
:100000004007002099010008F71A00083719000876
:10001000F51A0008790600082D1E000800000000EF
:10002000000000000000000000000000FB1A0008B3
:100030007B06000800000000F91A0008FD1A0008FD
:10004000B3010008B3010008B3010008B3010008C0
:10005000B3010008B30100087D060008830600080C
:10006000B3010008B3010008B3010008B3010008A0
:10007000B3010008B3010008B3010008B301000890
:10008000B3010008B3010008B3010008B301000880
:10009000B3010008B3010008B3010008B301000870
:1000A000B3010008B3010008B3010008B301000860
:1000B000B3010008B301000800000000B30100080C
:1000C000B30100080000000000000000B3010008B8
:1000D00000000000B3010008B301000800000000A8
:1000E000B3010008B3010008B301000800F002F8F2
:1000F00000F042F80AA090E8000C82448344AAF180
:100100000107DA4501D100F037F8AFF2090EBAE87D
:100110000F0013F0010F18BFFB1A43F0010318473B
:10012000E821000008220000103A24BF78C878C1F6
:10013000FAD8520724BF30C830C144BF04680C60ED
:10014000704700000023002400250026103A28BF35
:1001500078C1FBD8520728BF30C148BF0B60704739
:10016000752900F07780732900F0DD810020704749
:100170001FB51FBD10B510BD00F0D9F91146FFF72E
:10018000F7FF01F0B1FF00F0F7F903B4FFF7F2FF5A
:1001900003BC00F0FFF90000094880470948004708
:1001A000FEE7FEE7FEE7FEE7FEE7FEE7FEE7FEE727
:1001B000FEE7FEE704480549054A064B7047000084
:1001C0006F1B0008ED0000084001002040070020E0
:1001D00040030020400300200FB41CB5074B06AAC3
:1001E0007B4469460090059800F073F90020694649
:1001F00000F082F91CBC5DF814FB00001503000040
:1002000070B50C460546012A05D02878800600D531
:10021000EA69002302E0012305E05B1C934202D25D
:10022000E05C0028F9D1A869E618C01AA861286A1C
:10023000184428622846AFF3008004E0D5E9012184
:1002400014F8010B9047B442F8D32846AFF300806E
:1002500070BD00002DE9F0410646002410687529A4
:10026000314616A510D0AFF30080002802DA4042D4
:1002700013A507E031688A0701D512A502E04907F6
:1002800004D511A5012401E0AFF3008000210A226A
:1002900006F1240709E0B0FBF2FCB0FBF2F302FB2D
:1002A0001C00303078541846491C0028F3D12346EE
:1002B0002A463046BDE8F04100F0ADB8000000002D
:1002C0002D0000002B000000200000002DE9F0416F
:1002D0000F460546002028622846E968884770B323
:1002E000252805D0D5E901219047286A401CF2E76E
:1002F000E9682846002688476C2804460AD0682CFE
:1003000008D04C2C35D06A2C31D0742C31D07A2CBA
:100310002FD016E0E968064628468847B0420446D2
:1003200008D16C2E23D04FF480662846E9688847B0
:10033000044606E06C2E03D04FF4807601E01EE008
:100340004026E4B1A4F14100192802D8203446F433
:1003500000663A46214628462E60FFF701FF60B14D
:10036000012808D0FF1D27F007070837B4E78026CB
:10037000DBE70026D9E73F1DAEE72046B2E7286A53
:10038000BDE8F08110B5431C02E010F8011B71B10B
:100390008107FAD14FF0013202C88C1A8C4314EA5B
:1003A000C211F9D0C01A0A0603D0C01E10BDC01A6F
:1003B00010BD0A0401D0801E10BD0902FCD0401EF1
:1003C00010BD4FF0000200B5134694469646203902
:1003D00022BFA0E80C50A0E80C50B1F12001BFF4FE
:1003E000F7AF090728BFA0E80C5048BF0CC05DF864
:1003F00004EB890028BF40F8042B08BF704748BFB2
:1004000020F8022B11F0804F18BF00F8012B704725
:100410007047704770472DE9F0470D469946924660
:10042000044600F124080168880604D5E06921F03B
:100430001001216000E00120A84201DD471B00E01F
:100440000027A1697A1902EB0900081AA061207837
:10045000C00602D42046AFF30080002608E0D4E9AD
:1004600001211AF806009047206A401C761C206281
:100470004E45F4DB2078C0060AD52046AFF3008055
:1004800006E0D4E9012130209047206A401C206218
:10049000381EA7F10107F4DC07E0D4E9012118F8C0
:1004A00005009047206A401C2062281EA5F1010526
:1004B000F3DC2046AFF300802078000602D502204E
:1004C000BDE8F0870120FBE701694A1C026108785A
:1004D000704700B58FB0CDE9013100210591054984
:1004E0007944CDE9031011466846FFF7EFFE0FB0DF
:1004F00000BD0000E5FFFFFF0A6802F8010B0A607B
:10050000704710B5436913B1AFF3008001E0FFF706
:1005100077FE012010BD127800F124010A7000223C
:100520004A700122EDE711684FF0FF32E9E77546A6
:1005300000F02CF8AE4605006946534620F007004F
:10054000854618B020B5FFF735FEBDE820404FF0D6
:1005500000064FF000074FF000084FF0000B21F0AD
:100560000701AC46ACE8C009ACE8C009ACE8C0097A
:10057000ACE8C0098D46704710B50446AFF3008063
:100580002046BDE81040FFF700BE0000004870475D
:10059000E000002001491820ABBEFEE72600020063
:1005A0007047000070B5044600688168C943C907F8
:1005B00017D1816821F00101816000F0CDFB054673
:1005C0000AE000BF00F0C8FB401B022804D92068E5
:1005D0008068C043C00706D020688068C043C00759
:1005E000F0D0002070BDA06A40F01000A062E06A68
:1005F00040F00100E062012070BD0000F8B5002667
:100600000446009600688168C943C9072DD08168F7
:1006100041F001018160164816490068B0FBF1F015
:1006200000E0401E00900028FBD100F095FB05463D
:1006300016E000BF00F090FB401B022810D9206894
:100640008068C043C0070BD0A06A40F01000A062D1
:10065000E06A40F00100E06284F824600120F8BD07
:1006600020688068C043C007E4D10020F8BD0000C6
:100670001400002040420F00FEE77047012000F008
:1006800071BA022000F06EBAF8B50024009490F818
:1006900024202546012A12D0012280F824204A680D
:1006A0001F23072A0DD20668776B521E02EB8202C7
:1006B00093409F430B6893401F43776319E00220E8
:1006C000F8BD06680D2A0AD2376BD21F02EB8202F0
:1006D00093409F430B6893401F43376309E0F76AD9
:1006E0000D3A02EB820293409F430B6893401F43F5
:1006F000F7620A68072306680A2A0AD3F7680A3AE3
:1007000002EB420293409F438B6893401F43F76084
:1007100008E0376902EB420293409F438B689340A5
:100720001F4337610A68102A01D0112A20D1124BC9
:1007300002689A4217D193681B0219D4936843F454
:10074000000393600968102912D10C490C4A09680A
:10075000B1FBF2F101EB8101490000E0491E00917B
:100760000029FBD104E0816A41F02001816201246B
:1007700080F824502046F8BD0024014014000020D9
:1007800040420F000068C06C704700002DE9F04146
:100790004FF0000704003D467ED0A06A002628B92D
:1007A000E66284F82460204600F07EF82046FFF7D9
:1007B000F9FEA16AC90600D420B1A06A40F0100079
:1007C000A06269E0A16A21F4885141F00201A162AE
:1007D0006268E169237B0A4347EA43010A43A1684F
:1007E0004FF48077B94209D0012907D05FF00001AA
:1007F00094F814C0BCF1010F02D00AE03946F7E7C3
:10080000F3B1A36A43F02003A362E36A43F0010358
:10081000E3622368D3F804C02CF4694C4CEA010C61
:10082000C3F804C021688B68DFF870C003EA0C03CA
:1008300013438B60A168B9420BD0012909D00CE0A9
:10084000DFF85CC0A3690CEB43330B4343F4006156
:10085000DFE7218A0D05A5F580152168CB6A23F411
:1008600070032B43CB62216889680E4B194091427B
:1008700008D1E662A16A21F0020141F00101A16202
:10088000BDE8F081A06A20F0020040F01000A062F4
:10089000E06A40F00100E0620120F1E7FDF7E1FFCE
:1008A00000E0FFFFFE0E1FFF00B585B000210091A4
:1008B00001910291039100680E49884217D10E48B8
:1008C000816941F400718161816901F400710491D1
:1008D000816941F0040181618069694600F004008A
:1008E0000490032000900190044800F047F905B0FF
:1008F00000BD00000024014000100240000801403B
:100900002DE9F84300270D460446009700F024FA2D
:10091000804620688168C90508D5A06A40F020009B
:10092000A06284F824700120BDE8F8834168C905FD
:1009300003D4C06A10F4700F2AD0022000F0AAFA83
:100940003B490968B1FBF0F62068036939490B425D
:100950004FEA61014FEAA1121FD1C3684FEA611C3F
:1009600013EA0C0F19D103690B4225D1C06810425C
:1009700022D1142023E0681C0AD02DB100F0ECF93C
:10098000A0EB0800A84203D920680068800725D59D
:10099000206800688007EED52DE003690B4202D184
:1009A000C168114206D0026923490A4206D1C068D3
:1009B000084203D1542002E0292000E0FC204643F5
:1009C000009816E0681C11D02DB100F0C5F9A0EB1D
:1009D0000800A8420AD90098B04207D2A06A40F0A5
:1009E0000400A06284F8247003209DE70098401C56
:1009F0000090B042E6D321686FF012000860A06A50
:100A000040F40070A06220688068C0F3424007286C
:100A10000CD1207B50B9A06A20F48070A062A06A3B
:100A2000C00403D4A06A40F00100A06200207BE76C
:100A300014000020244992244992240070B50446F1
:100A400090F8240001280DD0012084F824002046CD
:100A5000FFF7D4FD02004FF0000005D084F8240019
:100A6000104670BD022070BDA16A40F20123994377
:100A700041F48071A1621F4D23681F49AB4218D118
:100A80000E6816F4702F14D0A66A46F48016A6627B
:100A90000E68760505D5A66A26F4005646F48056FB
:100AA000A662A66AF6040AD5E66A26F00606E6629B
:100AB00006E0A66A26F48016A6625E68E9E7E062B0
:100AC00084F824006FF00200186020688368C3F384
:100AD0004243072B05D1A84208D1096811F4702FB1
:100AE00004D0816841F480118160B9E7816841F4E4
:100AF000A001F9E7002801400424014070B5044634
:100B000000F02AF90546601C02D00448007804442D
:100B100000F022F9401BA042FAD370BD080000206B
:100B200010B50E4A0E4C01280AD0022807D1010345
:100B3000104600F003F9607870B10020607010BDBD
:100B40004FF48051104600F0F9F8207810B10020E1
:100B5000207010BD0120FBE70120EFE7000C0140F1
:100B600000000020044910B50A68024202D0086063
:100B7000FFF7D6FF10BD0000140401402DE9F84F27
:100B8000DFF89C91002409F1040A0AF1040B2346C2
:100B90000F270BF1040EBBE00125A5402A40AA4215
:100BA00076D1DFF880C14E68A6EB0C0866452BD0E5
:100BB0000DDC032E34D005DC36B3012E19D0022E05
:100BC0002FD11BE0112E16D0122E2AD119E0B8F524
:100BD000881F19D006DCB8F5803F15D0B8F5801F06
:100BE0001FD111E0B8F5001F0ED0B8F5041F18D1C1
:100BF0000AE0CB6815E0CB681B1D12E0CB68083318
:100C00000FE0CB680C330CE08B682BB1012B4FF05D
:100C1000080303D0456104E0042302E0056100E01D
:100C20000023FF2A01D8064601E000F104064FEA3E
:100C3000840501D9A5F12005D6F8008007FA05FC46
:100C400028EA0C0803FA05F548EA0508C6F800800A
:100C50004D68ED005BD5344DAE6946F00106AE61DE
:100C6000AD6924F0030605F0010500952F4D06EB54
:100C7000050CDCF80850A607360F07FA06F825EA37
:100C80000805DFF8AC80404503D14FF0000810E0C4
:100C90003DE0DFF8A080404502D14FF0010808E0B8
:100CA000DFF89480404502D14FF0020801E04FF098
:100CB000030808FA06F848EA0508CCF808804D68E9
:100CC000D9F80060ED034D4601D5164300E0964388
:100CD0002E604D68DAF80060AD03554601D5164325
:100CE00000E096432E604D68DBF80060ED025D4643
:100CF00001D5164300E096432E604D68DEF8006093
:100D0000AD02754601D5164300E096432E60641C83
:100D10000A6832FA04F57FF43FAFBDE8F88F0000AF
:100D200000040140000011100010024000000140CA
:100D300000080140000C014000100140C26821EA97
:100D400002030A4043EA0241016170470AB10161AE
:100D500070470904FBE70000014880687047000005
:100D600008000020024881680278114481607047C1
:100D700008000020074810B5016841F0100101602B
:100D8000032000F075F8002000F006F800F024F8C9
:100D9000002010BD0020024070B50D4D04464FF4F8
:100DA0007A712878B1FBF0F00A490968B1FBF0F0DC
:100DB00000F0C6FB48B9102C07D200222146501E75
:100DC00000F036F800206C6070BD012070BD00009E
:100DD00008000020140000200C4808B5816941F08B
:100DE00001018161816901F001010091C16941F056
:100DF0008051C161C06900F0805000900448416892
:100E000021F0E06141F08061416008BD00100240C6
:100E100000000140002809DB00F01F020121914081
:100E20004009800000F1E020C0F800117047000088
:100E3000F0B40E4B1B680C46C3F30223C3F1070545
:100E4000042D00D90425191D072901D2002300E033
:100E5000DB1E012606FA05F1491E214099409E40FD
:100E6000761E16403143F0BC00F0E1BF0CED00E00F
:100E7000064900F0070208684FF6FF03184040EAF1
:100E80000220034A10430860704700000CED00E0A8
:100E90000000FA0510B529A401461DCC86B08DE8E6
:100EA0001D002AA02A4C006804900020012923D0AC
:100EB00002293AD010291DD161682268D20119D5C2
:100EC000C1F38342C9031DF8020009D5616804AA71
:100ED000C1F34041515C1F4AB2FBF1F1484301E0CC
:100EE0001D4948436168490204D440005FF0030192
:100EF000B0FBF1F006B010BD226AC2F30121012956
:100F000003D1920701D5C803F4E7022905D1626A2B
:100F1000920702D549F64040ECE70329EAD121685F
:100F20008903E7D54FF22440E4E700F033F9616824
:100F3000C1F38131491C4900DAE7000002030405CE
:100F4000060708090A0B0C0D0E0F10100102000015
:100F50000010024000127A0000093D002DE9F8431C
:100F600005460078354CC00754D0E0690026C00023
:100F700008D4E06940F08050E061E069012600F0AB
:100F8000805000902E480168C90512D4016880463F
:100F900041F480710160FFF7DFFE074605E000BF06
:100FA000FFF7DAFEC01B642823D8D8F80000C0057C
:100FB000F6D5206A10F4407021D0A98801F4407160
:100FC00081421CD0206A1F49012220F440700A602F
:100FD00000220A602062C00711D0FFF7BDFE07465D
:100FE00041F2883808E000BFFFF7B6FEC11B41455B
:100FF00002D90320BDE8F883206A8007F4D5206A6F
:10100000696820F44070084320621EB1E06920F056
:101010008050E0612878800705D56068A96820F4D1
:101020004040084360602878C00605D56068E968DC
:1010300020F48000084360600020DBE700100240DD
:1010400000700040400442422DE9F0470F46050081
:1010500061D0434E306800F00700B84209D23068D2
:1010600020F0070038433060306800F00700B842D5
:1010700051D128683B4C810712D5400703D56068E1
:1010800040F4E06060602878000703D5606840F4B1
:10109000605060606068A96820F0F00008436060FC
:1010A0002878C00728D06868012810D02168022855
:1010B00010D0890700292EDA616821F0030101436D
:1010C0006160FFF749FE804641F288390DE02168F2
:1010D0008903EFE78901EDE7FFF73EFEA0EB08018A
:1010E000494502D90320BDE8F0876068696800F0CF
:1010F0000C00B0EB810FEFD1306800F00700B84270
:101100000BD9306820F0070038433060306800F0B9
:101110000700B84201D00120E5E72878400705D54F
:101120006068E96820F4E0600843606028780007A0
:1011300006D56068296920F4605040EAC10060600B
:1011400000F038F86168084AC1F30311515CC840E7
:101150000649086006480068FFF71EFE0020C2E747
:101160000020024000100240F0220008140000207D
:101170000C0000200448054900684968044AC1F38E
:101180000221515CC840704714000020001002404A
:10119000002300080448054900684968044AC1F36F
:1011A000C221515CC840704714000020001002406A
:1011B0000023000812A185B00FC98DE80F0014A00C
:1011C000144A006804905168134801F00C03042B82
:1011D00010D0082B0ED1C1F38343C9031DF80300BF
:1011E0000AD5516804AAC1F34041515C0A4A5043F0
:1011F000B0FBF1F005B0704708494843FAE700003A
:1012000002030405060708090A0B0C0D0E0F101047
:10121000010200000010024000127A0000093D00A7
:101220002DE9F84F040070D02078C04DC00749D098
:101230006868C0F38100012807D06868C0F38100A6
:10124000022809D16868C00306D52868800339D50B
:1012500060680028E7D035E06068B0F5803F0BD0CB
:1012600010B1B0F5A02F11D0286820F4803028608C
:10127000286820F4802002E0286840F4803028604C
:10128000606890B1FFF768FD06460AE0286840F400
:1012900080202860F0E700BFFFF75EFD801B642818
:1012A00073D828688003F7D50CE0FFF755FD064694
:1012B00005E000BFFFF750FD801B6428F0D82868C8
:1012C0008003F7D420789A4E80074FF001094FF041
:1012D000000839D5686810F00C0F07D06868C0F3B3
:1012E0008100022809D16868C00306D428688007F5
:1012F00014D52069012808D110E02069B0B1C6F8E2
:101300000090FFF729FD074605E00AE1FFF724FDFD
:10131000C01B0228C4D828688007F7D528686169EF
:1013200020F0F80040EAC10028600DE0C6F8008017
:10133000FFF712FD074604E0FFF70EFDC01B022871
:1013400023D828688007F7D4207800072CD579485F
:10135000A169D9B1C0F80090FFF7FEFC074604E090
:10136000FFF7FAFCC01B02280FD8686A8007F7D580
:1013700071484FF4FA510068B0FBF1F0009000BFE3
:101380000098411E0091FAD20EE080E0C0F8008083
:10139000FFF7E2FC074604E0FFF7DEFCC01B022873
:1013A00075D8686A8007F7D42078400760D5E86967
:1013B0000027C00008D4E86940F08050E861E8697F
:1013C000012700F0805000905C480168C90513D4E3
:1013D0000168834641F480710160FFF7BDFC8246DD
:1013E00006E000BFFFF7B8FCA0EB0A0064284ED867
:1013F000DBF80000C005F5D5E06801280AD008B187
:10140000052813D0286A20F001002862286A20F0FD
:10141000040002E0286A40F001002862E06841F21E
:10142000883B98B1FFF798FC82460BE0286A40F0B1
:1014300004002862EEE700BFFFF78EFCA0EB0A0174
:1014400059455AD8286A8007F6D50CE0FFF784FC86
:10145000824605E0FFF780FCA0EB0A0159454CD815
:10146000286A8007F6D41FB1E86920F08050E8614F
:10147000E06988B36968C1F38101022944D0022878
:10148000C6F8608004D0FFF767FC044638E034E01B
:10149000FFF762FC074604E0FFF75EFCC01B022872
:1014A0002BD828688001F7D4206AB0F5803F05D199
:1014B0006868A16820F4003008436860D4E9080136
:1014C0000843696821F4741108436860C6F86090A5
:1014D000FFF742FC044606E025E000BFFFF73CFCB6
:1014E000001B022809D828688001F7D51BE000BF3F
:1014F000FFF732FC001B022802D90320BDE8F88F59
:1015000028688001F4D40EE00128F7D06868226AC8
:1015100000F48031914204D1616A00F47010884275
:1015200001D00120EAE70020E8E7000000100240B7
:10153000000042428004424214000020007000403B
:1015400010B5401EB0F1807F01D3012010BD4FF0D7
:10155000E02460610F21601700F069FC0020A061A9
:1015600007202061002010BD10B590F83C20012A12
:1015700022D0012280F83C20CA688C6822F4407294
:1015800022434C6822F4806222430C6822F40062F9
:1015900022430C6922F4805222434C6922F4005207
:1015A0002243C969002322F480420A4301684A6445
:1015B00080F83C30002010BD022010BD70B590F8BE
:1015C0003C20012A23D0012480F83C40022280F8EC
:1015D0003D2003685A689D6822F070060A6832430D
:1015E0005A600C4B02689A4205D0B2F1804F02D08B
:1015F000094B9A4204D1496825F080031943916050
:1016000080F83D40002180F83C10084670BD022063
:1016100070BD0000002C01400004004000B585B002
:101620000021009101910291039100680B498842C9
:1016300012D10B48816941F00401816180696946DA
:1016400000F0040004904FF400600090022001902C
:1016500003900448FFF792FA05B000BD002C01404A
:10166000001002400008014070B5044690F83C00AC
:101670000D4601280AD0012084F83C0042B1042A1A
:1016800018D0082A2AD00C2A4DD139E0022070BD8A
:10169000206800F09BFA2068816941F008018161AF
:1016A0002068816921F004018161206881692A69CB
:1016B000114311E0206800F0B1FA2068816941F41B
:1016C000006181612068816921F480618161206805
:1016D00081692A6941EA0221816124E0206800F0E1
:1016E000C9FA2068C16941F00801C1612068C16977
:1016F00021F00401C1612068C1692A69114311E028
:10170000206800F0E3FA2068C16941F40061C1611A
:101710002068C16921F48061C1612068C1692A69BA
:1017200041EA0221C161002084F83C0070BD10B57F
:10173000040003D094F83D0010B107E0012010BD73
:10174000002084F83C00204600F01EF8022084F8B7
:101750003D00211D206800F00BFA012084F84600AE
:1017600084F83E0084F83F0084F8400084F841008B
:1017700084F8420084F8430084F8440084F845006B
:1017800084F83D00002010BD08B500680649884275
:1017900008D10648816941F400618161806900F4E3
:1017A0000060009008BD0000002C014000100240C5
:1017B00070B5040004D094F83D00002510B106E097
:1017C000012070BD84F83C50204600F023F824200E
:1017D00084F83D002068C16821F40051C1602046B2
:1017E00000F096FA2068016921F4904101612068B7
:1017F000416921F02A0141612068C16841F400512A
:10180000C1602564202084F83D0084F83E0000205B
:1018100070BD000030B585B000240094019402949E
:10182000039400681449884224D11448816941F422
:1018300080418161816901F480410491816941F0B5
:101840000401816180690E4D00F0040004904FF4A2
:101850000070009002200190032003906946284602
:10186000FFF78CF92815CDE9000469462846029453
:10187000FFF784F905B030BD003801400010024088
:10188000000801402DE9F843044690F83D001F464A
:1018900016460D4620284CD1C5B1BEB194F83C0087
:1018A000012846D0012084F83C004FF00008C4F81D
:1018B0004080212084F83D00FFF74EFAA68481463F
:1018C000E684A068B0F5805F03D004E00120BDE8A5
:1018D000F883206928B12E465FF0000584F83C802B
:1018E0000EE00026FAE78021204600F06DFAA0B94C
:1018F000AEB116F8010B21684860E08C401EE08410
:10190000E08C4B464FF0000200970028EBD14FF0DF
:101910004001204600F058FA30B10320D7E735F8EF
:10192000020BC0F30800E6E7202084F83D00002009
:10193000CDE70220CBE7FEE73EB500241148009436
:10194000019402940E4984600160047304750125BA
:1019500005614FF460214460C161FEF717FF08B1D3
:1019600072B6FEE703200094CDE9015069460548B0
:10197000FEF78AFE002801D072B6FEE73EBD0000E9
:1019800000240140180000202DE9F04385B0002418
:101990002D480094019402940394816941F0200140
:1019A0008161816901F020010491816941F00401A4
:1019B0008161816901F004010491816941F00801AC
:1019C00081618069DFF8848000F0080004900022C3
:1019D000FC214046FFF7BAF9DFF874904FF4405706
:1019E000002239464846FFF7B1F9FC200126CDE92F
:1019F0000006022569464046CDE90245FFF7BEF8DC
:101A0000032000901348CDE9010569464846FFF7D9
:101A1000B5F8CDE9007669464846CDE90245FFF7BD
:101A2000ADF8002211460620FFF702FA0620FFF764
:101A3000F1F9002211460720FFF7FAF90720FFF716
:101A4000E9F905B0BDE8F08300100240000801404C
:101A5000000C01400000111010B592B000240F944A
:101A60001C2108A81094FEF7ACFC20216846FEF764
:101A7000A8FC1F481D49C0E900144FF6FF71C0E9DA
:101A80000241046144618461FFF751FE08B172B6FE
:101A9000FEE70F940FA916481094FFF78FFD08B1C9
:101AA00072B6FEE76020CDE908040A940C940D9408
:101AB0000C2208A90E480E94FFF7D6FD08B172B6A5
:101AC000FEE700944FF40050CDE9044002940194E5
:101AD0000394694606480794FFF746FD08B172B6BD
:101AE000FEE70348FFF79AFD12B010BD002C01403D
:101AF00048000020FEE7FEE770477047FFF732B965
:101B000030B593B028216846FEF75BFC14210AA883
:101B1000FEF757FC0025022401200F950490009445
:101B20001020059012950004CDE9085011951095EC
:101B300007946846FFF774FB08B172B6FEE70AA97E
:101B40000F2081E831000D9500210AA80E95FFF7BE
:101B50007BFA08B172B6FEE70FA811950F94FFF754
:101B6000FDF9002801D072B6FEE713B030BD704712
:101B700070B50268134B144C4FF08046984203D066
:101B8000B04201D0A04203D122F070054A682A4336
:101B9000984203D0B04201D0A04203D122F4407455
:101BA000CA6822434C6922F08002224302608A689C
:101BB000C2620A688262984201D109690163012107
:101BC000416170BD002C01400004004030B5026A44
:101BD00022F001020262026A4368846924F07305FC
:101BE0000C682C4322F002058A682A430A4DA84259
:101BF0000BD122F00805CA6823F440732A434D69CB
:101C000022F004021D438B692B43436084614968C1
:101C10004163026230BD0000002C014030B5026A11
:101C200022F010020262026A436884690D6824F49B
:101C3000E64444EA05248D6822F0200242EA0512B7
:101C40000B4DA8420ED1CD6822F0800242EA051267
:101C50004D6923F4406343EA85038D6922F0400215
:101C600043EA85034360846149688163026230BD51
:101C7000002C014030B5026A22F480720262036ACD
:101C80004268C46923F4007324F073050C682C4384
:101C90008D6843EA05230C4DA8420ED1CD6823F48C
:101CA000006343EA05234D6922F4405242EA0512DB
:101CB0008D6923F4806342EA05124260C461496879
:101CC000C163036230BD0000002C014030B5026AE0
:101CD00022F480520262046A4268C3690D6823F4E8
:101CE000E64343EA05238D6824F4005444EA0534AE
:101CF000064DA84204D14D6922F4804242EA851281
:101D00004260C36149680164046230BD002C014037
:101D100070B5044600680169E26821F4405111433E
:101D200001612169A0680843616908432168CA68A4
:101D300041F20C639A430243CA6020684169A26978
:101D400021F44071114341611E492068884202D14B
:101D5000FFF720FA01E0FFF70DFA00EBC00101EBFD
:101D60000012606864218000B2FBF0F3B3FBF1F372
:101D70006FF018067343B2FBF0F5B2FBF0F605EB1B
:101D80008305322303EB0515B5FBF1F5B6FBF1F640
:101D900005F0F00505EB0615B2FBF0F6B2FBF0F02E
:101DA000B0FBF1F06FF01802504306EB800003EB3C
:101DB0000010B0FBF1F0216800F00F0028448860AB
:101DC00070BD0000003801402DE9F04198461746EB
:101DD0000E460446069D1DE0681C1BD02DB1FEF783
:101DE000BBFFA0EB0800A84214D92068C16821F409
:101DF000D071C1602068416921F00101416120205A
:101E000084F83D0084F83E00002084F83C00032064
:101E1000BDE8F0812068006836EA000004D00020A8
:101E2000B842D9D00020F3E70120F9E7FEE709071F
:101E3000090E002804DB00F1E02080F80014704750
:101E400000F00F0000F1E02080F8141D7047000042
:101E50002DE9F04F364A0346106840F00800106044
:101E600033494FF004080831C1F8008010240C6099
:101E700020250D6040260E6080270F6000F0DAF804
:101E8000106840F0040010602A4AD80601D514609A
:101E900002E04FF48010106098064FF4001901D54D
:101EA000156001E0C2F8009058064FF4800A01D591
:101EB000166001E0C2F800A018064FF4000B01D52F
:101EC000176001E0C2F800B000F0B4F8C1F800807B
:101ED0000C600D600E600F6000F0ACF81448D0F894
:101EE00000C04CF0040CC0F800C0D80701D014604A
:101EF00002E04FF480101060980701D5156001E0F2
:101F0000C2F80090580701D5166001E0C2F800A0A1
:101F1000180701D5176001E0C2F800B000F08AF898
:101F2000C1F800800C600D600E600F60BDE8F08F9E
:101F30000C0801401008014010B5012000F006F81F
:101F4000BDE810400220FEF7D9BD00002DE9F04F9A
:101F500037490346082008604FF00409C1F8009093
:101F600010240C6020250D6040260E6080270F6035
:101F700000F060F8DFF8B880A8F10808D8F8002071
:101F800042F00402C8F80020D8064FF4801A08F185
:101F9000040201D5146001E0C2F800A098064FF4D5
:101FA000001B01D5156001E0C2F800B0580601D54C
:101FB000166002E04FF480001060180601D517602B
:101FC00002E04FF40000106000F034F8C1F8009017
:101FD0000C600D600E600F6000F02CF8D8F800C0A7
:101FE0004CF0040CC8F800C0D80701D0146001E020
:101FF000C2F800A0980701D5156001E0C2F800B052
:10200000580701D5166002E04FF4800010601807F1
:1020100001D5176002E04FF40000106000F00AF8EC
:10202000C1F800900C600D600E600F60BDE8F08F8D
:10203000140801404FF47A70401EFDD1704701280A
:1020400005D0022805D1BF31C8B2FFF77FBF7F316D
:10205000FAE7704770B5064614460D46FA20FEF7BB
:102060004DFD0220FFF772FF3220FEF747FD2E43A1
:10207000264346F02000FFF769FF3220FEF73EFDC1
:102080000620FFF763FF3220FEF738FD0E20FFF732
:102090005DFF3220FEF732FD0C20FFF757FF3220A4
:1020A000FEF72CFD0120FFF751FFBDE870406420D2
:1020B000FEF724BD10B5044606E000BFFFF7BAFFE7
:1020C00014F8010BFFF7C4FE20780028F6D1BDE814
:1020D0001040FFF7AFBF10B51446FFF7B0FF204622
:1020E000BDE81040FFF7E6BF98B0FEF743FEFFF7EC
:1020F00007FDFFF749FCFFF71FFC60485E4900241D
:1021000001604FF4E131C0E901140C21C460C0E961
:1021100004418461C461FFF74BFB08B172B6FEE76E
:10212000FFF79AFC002108220846FFF793FF0121E0
:1021300053A20846FFF7CFFF6420FEF7DFFCFFF74E
:10214000FBFEDFF83881534E08F1440835464FF066
:10215000FF374A49C8F800404431A1F1BC00FEF7FE
:1021600093FA46487838FEF769FC444805217838E8
:10217000FEF7C6FB18BB41487838FEF703FB4FF467
:10218000FA714843000B70603220FEF7B7FCFFF78E
:10219000D3FE202110A8FEF714F93FA110A8726801
:1021A000FEF71AF801213DA20846FFF794FF10AA96
:1021B0000D210120FFF78FFF3220FEF79FFC202129
:1021C00008A8FEF7FEF8687808B137A300E037A347
:1021D000287808B134A200E034A235A108A8FDF7A0
:1021E000FBFF08AA01210220FFF775FF6420FEF71C
:1021F00085FC20216846FEF7E4F830A16846726845
:10220000FDF7EAFF6846FEF7BDF882B23B46694635
:102210001A48FFF737FB20216846FEF7D2F82878E6
:1022200008B121A200E021A22BA16846FDF7D4FF4E
:102230006846FEF7A7F882B23B4669460F48FFF7AB
:1022400021FB20216846FEF7BCF8687808B116A289
:1022500000E016A223A16846FDF7BEFF6846FEF720
:1022600091F882B23B4669460448FFF70BFB0A200F
:10227000FEF744FC6DE700000038014090000020AC
:10228000446973706C6179696E672056616C75651D
:102290007300000000000020256C750054656D700F
:1022A00065726174757265004F4E00004F464600BE
:1022B0004C616D703A2025732025730054656D7054
:1022C000657261747572653D256C752043656C633C
:1022D0006975730D0A0000004C616D70303D257307
:1022E000200D0A004C616D70313D2573200D0A00F0
:1022F00000000000000000000102030406070809B6
:102300000000000001020304282300080000002050
:1023100018000000280100084023000818000020D1
:102320002807000044010008000000000000000031
:102330000100000010000000000000000024F40074
:04000005080000ED02
:00000001FF
