:020000040800F2
:10000000900700209D010008FF1C0008EF1A00085F
:10001000FD1C00087D060008751F00080000000098
:10002000000000000000000000000000031D0008A8
:100030007F06000800000000011D0008051D0008E3
:10004000B7010008B7010008B7010008B7010008B0
:10005000B7010008B70100088106000887060008FC
:10006000B7010008B7010008B7010008B701000890
:10007000B7010008B7010008B7010008B701000880
:10008000B7010008B7010008B7010008B701000870
:10009000B7010008B7010008B70100088D06000885
:1000A000B7010008B7010008B7010008B701000850
:1000B000851D0008B701000800000000B701000816
:1000C000B70100080000000000000000B7010008B0
:1000D00000000000B7010008B701000800000000A0
:1000E000B7010008B7010008B701000800F002F8E6
:1000F00000F045F80AA090E8000C82448344AAF17D
:100100000107DA4501D100F03AF8AFF2090EBAE87A
:100110000F0013F0010F18BFFB1A43F0010318473B
:10012000B4230000D4230000103A24BF78C878C15B
:10013000FAD8520724BF30C830C144BF04680C60ED
:10014000704700000023002400250026103A28BF35
:1001500078C1FBD8520728BF30C148BF0B60704739
:10016000642900F07980752900F07680732900F009
:10017000DC81002070471FB51FBD10B510BD00F019
:10018000D8F91146FFF7F7FF02F052F800F0F6F940
:1001900003B4FFF7F2FF03BC00F0FEF90948804703
:1001A00009480047FEE7FEE7FEE7FEE7FEE7FEE759
:1001B000FEE7FEE7FEE7FEE704480549054A064B71
:1001C00070470000811D0008ED000008900100202C
:1001D0009007002090030020900300200FB41CB56E
:1001E000074B06AA7B4469460090059800F073F916
:1001F0000020694600F082F91CBC5DF814FB000089
:100200001503000070B50C460546012A05D0287874
:10021000800600D5EA69002302E0012305E05B1CAB
:10022000934202D2E05C0028F9D1A869E618C01A0E
:10023000A861286A184428622846AFF3008004E0C9
:10024000D5E9012114F8010B9047B442F8D32846B0
:10025000AFF3008070BD00002DE9F0410646002498
:1002600010687529314616A510D0AFF3008000281C
:1002700002DA404213A507E031688A0701D512A5CA
:1002800002E0490704D511A5012401E0AFF3008085
:1002900000210A2206F1240709E0B0FBF2FCB0FBC2
:1002A000F2F302FB1C00303078541846491C002839
:1002B000F3D123462A463046BDE8F04100F0ADB800
:1002C000000000002D0000002B00000020000000B6
:1002D0002DE9F0410F460546002028622846E968CE
:1002E000884770B3252805D0D5E901219047286AB1
:1002F000401CF2E7E9682846002688476C28044637
:100300000AD0682C08D04C2C35D06A2C31D0742CF3
:1003100031D07A2C2FD016E0E96806462846884767
:10032000B042044608D16C2E23D04FF48066284694
:10033000E9688847044606E06C2E03D04FF48076C7
:1003400001E01EE04026E4B1A4F14100192802D8E2
:10035000203446F400663A46214628462E60FFF7D0
:10036000FFFE60B1012808D0FF1D27F007070837FE
:10037000B4E78026DBE70026D9E73F1DAEE720463D
:10038000B2E7286ABDE8F08110B5431C02E010F81E
:10039000011B71B18107FAD14FF0013202C88C1AEA
:1003A0008C4314EAC211F9D0C01A0A0603D0C01E49
:1003B00010BDC01A10BD0A0401D0801E10BD090274
:1003C000FCD0401E10BD4FF0000200B5134694460D
:1003D0009646203922BFA0E80C50A0E80C50B1F19D
:1003E0002001BFF4F7AF090728BFA0E80C5048BFB1
:1003F0000CC05DF804EB890028BF40F8042B08BF4F
:10040000704748BF20F8022B11F0804F18BF00F84A
:10041000012B70477047704770472DE9F0470D4634
:1004200099469246044600F124080168880604D5DE
:10043000E06921F01001216000E00120A84201DD07
:10044000471B00E00027A1697A1902EB0900081A8E
:10045000A0612078C00602D42046AFF300800026B9
:1004600008E0D4E901211AF806009047206A401CF0
:10047000761C20624E45F4DB2078C0060AD5204663
:10048000AFF3008006E0D4E9012130209047206AD4
:10049000401C2062381EA7F10107F4DC07E0D4E914
:1004A000012118F805009047206A401C2062281E90
:1004B000A5F10105F3DC2046AFF3008020780006AB
:1004C00002D50220BDE8F0870120FBE701694A1C44
:1004D00002610878704700B58FB0CDE90131002185
:1004E000059105497944CDE9031011466846FFF7A7
:1004F000EFFE0FB000BD0000E5FFFFFF0A6802F845
:10050000010B0A60704710B5436913B1AFF3008067
:1005100001E0FFF777FE012010BD127800F1240101
:100520000A7000224A700122EDE711684FF0FF3295
:10053000E9E7754600F02CF8AE46050069465346DB
:1005400020F00700854618B020B5FFF735FEBDE85E
:1005500020404FF000064FF000074FF000084FF02A
:10056000000B21F00701AC46ACE8C009ACE8C009BB
:10057000ACE8C009ACE8C0098D46704710B5044628
:10058000AFF300802046BDE81040FFF701BE000039
:10059000004870472C01002001491820ABBEFEE73F
:1005A000260002007047000070B5044600688168AC
:1005B000C943C90717D1816821F00101816000F0AA
:1005C000F1FB05460AE000BF00F0ECFB401B0228EF
:1005D00004D920688068C043C00706D020688068BE
:1005E000C043C007F0D0002070BDA06A40F01000EA
:1005F000A062E06A40F00100E062012070BD0000EE
:10060000F8B500260446009600688168C943C9070A
:100610002DD0816841F001018160164816490068BB
:10062000B0FBF1F000E0401E00900028FBD100F08C
:10063000B9FB054616E000BF00F0B4FB401B0228E2
:1006400010D920688068C043C0070BD0A06A40F072
:100650001000A062E06A40F00100E06284F82460CB
:100660000120F8BD20688068C043C007E4D10020A5
:10067000F8BD00001800002040420F00FEE7704760
:10068000012000F095BA022000F092BA10B52020A7
:1006900000F08EFABDE81040402000F089BA00005A
:1006A000F8B50024009490F824202546012A12D0A1
:1006B000012280F824204A681F23072A0DD20668E9
:1006C000776B521E02EB820293409F430B6893406C
:1006D0001F43776319E00220F8BD06680D2A0AD28D
:1006E000376BD21F02EB820293409F430B6893400B
:1006F0001F43376309E0F76A0D3A02EB8202934029
:100700009F430B6893401F43F7620A6807230668FC
:100710000A2A0AD3F7680A3A02EB420293409F433F
:100720008B6893401F43F76008E0376902EB420291
:1007300093409F438B6893401F4337610A68102A98
:1007400001D0112A20D1124B02689A4217D1936826
:100750001B0219D4936843F40003936009681029BD
:1007600012D10C490C4A0968B1FBF2F101EB81018D
:10077000490000E0491E00910029FBD104E0816A94
:1007800041F020018162012480F824502046F8BD08
:10079000002401401800002040420F000068C06C97
:1007A000704700002DE9F0414FF0000704003D467E
:1007B0007ED0A06A002628B9E66284F8246020462C
:1007C00000F07EF82046FFF7EFFEA16AC90600D4CC
:1007D00020B1A06A40F01000A06269E0A16A21F493
:1007E000885141F00201A1626268E169237B0A43FA
:1007F00047EA43010A43A1684FF48077B94209D020
:10080000012907D05FF0000194F814C0BCF1010F7A
:1008100002D00AE03946F7E7F3B1A36A43F02003B8
:10082000A362E36A43F00103E3622368D3F804C0E0
:100830002CF4694C4CEA010CC3F804C021688B68A5
:10084000DFF870C003EA0C0313438B60A168B94260
:100850000BD0012909D00CE0DFF85CC0A3690CEBD8
:1008600043330B4343F40061DFE7218A0D05A5F50F
:1008700080152168CB6A23F470032B43CB62216877
:1008800089680E4B1940914208D1E662A16A21F0B5
:10089000020141F00101A162BDE8F081A06A20F0EF
:1008A000020040F01000A062E06A40F00100E06247
:1008B0000120F1E7FDF7E1FF00E0FFFFFE0E1FFF63
:1008C00000B585B00021009101910291039100686B
:1008D0000E49884218D10E48816941F40071816146
:1008E000816901F400710491816941F00401816121
:1008F0008069694600F00400049001200090032004
:100900000190044800F060F905B000BD00240140EA
:1009100000100240000801402DE9F84300270D4671
:100920000446009700F03EFA804620688168C905B9
:1009300008D5A06A40F02000A06284F8247001204D
:10094000BDE8F8834168C90503D4C06A10F4700F8C
:100950002AD0022000F0C4FA3B490968B1FBF0F646
:100960002068036939490B424FEA61014FEAA1123D
:100970001FD1C3684FEA611C13EA0C0F19D1036938
:100980000B4225D1C068104222D1142023E0681CFC
:100990000AD02DB100F006FAA0EB0800A84203D956
:1009A00020680068800725D5206800688007EED59C
:1009B0002DE003690B4202D1C168114206D00269E1
:1009C00023490A4206D1C068084203D1542002E0FC
:1009D000292000E0FC204643009816E0681C11D056
:1009E0002DB100F0DFF9A0EB0800A8420AD9009869
:1009F000B04207D2A06A40F00400A06284F82470DC
:100A000003209DE70098401C0090B042E6D3216887
:100A10006FF012000860A06A40F40070A0622068C5
:100A20008068C0F3424007280CD1207B50B9A06AEF
:100A300020F48070A062A06AC00403D4A06A40F0D1
:100A40000100A06200207BE71800002024499224C6
:100A50004992240070B5044690F8240001280DD076
:100A6000012084F824002046FFF7CAFD02004FF061
:100A7000000005D084F82400104670BD022070BD2F
:100A8000A16A40F20123994341F48071A1621F4D94
:100A900023681F49AB4218D10E6816F4702F14D08A
:100AA000A66A46F48016A6620E68760505D5A66A83
:100AB00026F4005646F48056A662A66AF6040AD5C5
:100AC000E66A26F00606E66206E0A66A26F48016C6
:100AD000A6625E68E9E7E06284F824006FF0020035
:100AE000186020688368C3F34243072B05D1A842EE
:100AF00008D1096811F4702F04D0816841F4801185
:100B00008160B9E7816841F4A001F9E7002801405C
:100B10000424014010B5044690F82400012807D0B1
:100B2000012084F824002046FFF73EFD10B107E0C5
:100B3000022010BDA16A21F4885141F00101A16297
:100B4000002184F8241010BD70B5044600F02AF985
:100B50000546601C02D004480078044400F022F9E5
:100B6000401BA042FAD370BD0C00002010B50E4A05
:100B70000E4C01280AD0022807D11021104600F09F
:100B800003F9607868B10020607010BD082110463C
:100B900000F0FAF8207810B10020207010BD01207C
:100BA000FBE70120F0E70000000C014000000020FE
:100BB000044910B50A68024202D00860FFF7D6FF68
:100BC00010BD0000140401402DE9F84FDFF89C919E
:100BD000002409F1040A0AF1040B23460F270BF144
:100BE000040EBBE00125A5402A40AA4276D1DFF8D9
:100BF00080C14E68A6EB0C0866452BD00DDC032E99
:100C000034D005DC36B3012E19D0022E2FD11BE0D3
:100C1000112E16D0122E2AD119E0B8F5881F19D03E
:100C200006DCB8F5803F15D0B8F5801F1FD111E064
:100C3000B8F5001F0ED0B8F5041F18D10AE0CB6834
:100C400015E0CB681B1D12E0CB6808330FE0CB68C2
:100C50000C330CE08B682BB1012B4FF0080303D051
:100C6000456104E0042302E0056100E00023FF2A5F
:100C700001D8064601E000F104064FEA840501D9D7
:100C8000A5F12005D6F8008007FA05FC28EA0C0833
:100C900003FA05F548EA0508C6F800804D68ED003E
:100CA0005BD5344DAE6946F00106AE61AD6924F006
:100CB000030605F0010500952F4D06EB050CDCF849
:100CC0000850A607360F07FA06F825EA0805DFF8E8
:100CD000AC80404503D14FF0000810E03DE0DFF864
:100CE000A080404502D14FF0010808E0DFF8948071
:100CF000404502D14FF0020801E04FF0030808FA26
:100D000006F848EA0508CCF808804D68D9F8006074
:100D1000ED034D4601D5164300E096432E604D6825
:100D2000DAF80060AD03554601D5164300E096435E
:100D30002E604D68DBF80060ED025D4601D516437C
:100D400000E096432E604D68DEF80060AD02754607
:100D500001D5164300E096432E60641C0A6832FAFF
:100D600004F57FF43FAFBDE8F88F000000040140B8
:100D70000000111000100240000001400008014076
:100D8000000C014000100140C26821EA02030A4041
:100D900043EA0241016170470AB1016170470904E9
:100DA000FBE7000001488068704700000C0000204D
:100DB0000248816802781144816070470C0000206D
:100DC000074810B5016841F010010160032000F0F0
:100DD00075F8002000F006F800F024F8002010BD9F
:100DE0000020024070B50D4D04464FF47A7128780A
:100DF000B1FBF0F00A490968B1FBF0F000F0C6FB66
:100E000048B9102C07D200222146501E00F036F8B7
:100E100000206C6070BD012070BD00000C0000203F
:100E2000180000200C4808B5816941F0010181617A
:100E3000816901F001010091C16941F08051C161F6
:100E4000C06900F0805000900448416821F0E061E2
:100E500041F08061416008BD001002400000014087
:100E6000002809DB00F01F020121914040098000A9
:100E700000F1E020C0F8001170470000F0B40E4B04
:100E80001B680C46C3F30223C3F10705042D00D9E8
:100E90000425191D072901D2002300E0DB1E0126CD
:100EA00006FA05F1491E214099409E40761E1640E3
:100EB0003143F0BC01F05FB80CED00E0064900F0F2
:100EC000070208684FF6FF03184040EA0220034A71
:100ED00010430860704700000CED00E00000FA05C8
:100EE00010B529A401461DCC86B08DE81D002AA0AE
:100EF0002A4C006804900020012923D002293AD00E
:100F000010291DD161682268D20119D5C1F383422D
:100F1000C9031DF8020009D5616804AAC1F3404164
:100F2000515C1F4AB2FBF1F1484301E01D494843BF
:100F30006168490204D440005FF00301B0FBF1F0A6
:100F400006B010BD226AC2F30121012903D1920724
:100F500001D5C803F4E7022905D1626A920702D5D8
:100F600049F64040ECE70329EAD121688903E7D537
:100F70004FF22440E4E700F033F96168C1F38131B6
:100F8000491C4900DAE700000203040506070809C6
:100F90000A0B0C0D0E0F1010010200000010024091
:100FA00000127A0000093D002DE9F843054600785B
:100FB000354CC00754D0E0690026C00008D4E06971
:100FC00040F08050E061E069012600F08050009020
:100FD0002E480168C90512D40168804641F4807129
:100FE0000160FFF7DFFE074605E000BFFFF7DAFE0E
:100FF000C01B642823D8D8F80000C005F6D5206AA5
:1010000010F4407021D0A98801F4407181421CD0B5
:10101000206A1F49012220F440700A6000220A6001
:101020002062C00711D0FFF7BDFE074641F28838A5
:1010300008E000BFFFF7B6FEC11B414502D90320FF
:10104000BDE8F883206A8007F4D5206A696820F437
:101050004070084320621EB1E06920F08050E061DA
:101060002878800705D56068A96820F440400843C7
:1010700060602878C00605D56068E96820F48000C3
:10108000084360600020DBE7001002400070004071
:10109000400442422DE9F0470F46050061D0434E1F
:1010A000306800F00700B84209D2306820F007002D
:1010B00038433060306800F00700B84251D12868EA
:1010C0003B4C810712D5400703D5606840F4E060CF
:1010D00060602878000703D5606840F46050606065
:1010E0006068A96820F0F000084360602878C007B5
:1010F00028D06868012810D02168022810D08907FC
:1011000000292EDA616821F0030101436160FFF7D5
:1011100049FE804641F288390DE021688903EFE7F6
:101120008901EDE7FFF73EFEA0EB0801494502D932
:101130000320BDE8F0876068696800F00C00B0EB40
:10114000810FEFD1306800F00700B8420BD930684A
:1011500020F0070038433060306800F00700B842E4
:1011600001D00120E5E72878400705D56068E968E7
:1011700020F4E060084360602878000706D56068C6
:10118000296920F4605040EAC100606000F038F83E
:101190006168084AC1F30311515CC8400649086000
:1011A00006480068FFF71EFE0020C2E7002002404C
:1011B00000100240BC24000818000020100000208D
:1011C0000448054900684968044AC1F30221515C9A
:1011D000C84070471800002000100240CC240008CE
:1011E0000448054900684968044AC1F3C221515CBA
:1011F000C84070471800002000100240CC240008AE
:1012000012A185B00FC98DE80F0014A0144A006820
:1012100004905168134801F00C03042B10D0082BE4
:101220000ED1C1F38343C9031DF803000AD55168E9
:1012300004AAC1F34041515C0A4A5043B0FBF1F0AB
:1012400005B0704708494843FAE700000203040567
:10125000060708090A0B0C0D0E0F10100102000002
:101260000010024000127A0000093D002DE9F84FFD
:10127000040070D02078C04DC00749D06868C0F322
:101280008100012807D06868C0F38100022809D1D5
:101290006868C00306D52868800339D560680028CF
:1012A000E7D035E06068B0F5803F0BD010B1B0F505
:1012B000A02F11D0286820F480302860286820F4FE
:1012C000802002E0286840F480302860606890B197
:1012D000FFF768FD06460AE0286840F48020286091
:1012E000F0E700BFFFF75EFD801B642873D8286815
:1012F0008003F7D50CE0FFF755FD064605E000BF7B
:10130000FFF750FD801B6428F0D828688003F7D4CD
:1013100020789A4E80074FF001094FF0000839D528
:10132000686810F00C0F07D06868C0F381000228CD
:1013300009D16868C00306D42868800714D52069DD
:10134000012808D110E02069B0B1C6F80090FFF77D
:1013500029FD074605E00AE1FFF724FDC01B02282E
:10136000C4D828688007F7D52868616920F0F8009C
:1013700040EAC10028600DE0C6F80080FFF712FDCA
:10138000074604E0FFF70EFDC01B022823D828689B
:101390008007F7D4207800072CD57948A169D9B106
:1013A000C0F80090FFF7FEFC074604E0FFF7FAFCE8
:1013B000C01B02280FD8686A8007F7D571484FF420
:1013C000FA510068B0FBF1F0009000BF0098411E98
:1013D0000091FAD20EE080E0C0F80080FFF7E2FC56
:1013E000074604E0FFF7DEFCC01B022875D8686AD8
:1013F0008007F7D42078400760D5E8690027C0004F
:1014000008D4E86940F08050E861E869012700F0FD
:10141000805000905C480168C90513D40168834678
:1014200041F480710160FFF7BDFC824606E000BF19
:10143000FFF7B8FCA0EB0A0064284ED8DBF80000E8
:10144000C005F5D5E06801280AD008B1052813D0F9
:10145000286A20F001002862286A20F0040002E0D7
:10146000286A40F001002862E06841F2883B98B1A8
:10147000FFF798FC82460BE0286A40F004002862DF
:10148000EEE700BFFFF78EFCA0EB0A0159455AD8E2
:10149000286A8007F6D50CE0FFF784FC824605E059
:1014A000FFF780FCA0EB0A0159454CD8286A800759
:1014B000F6D41FB1E86920F08050E861E06988B394
:1014C0006968C1F38101022944D00228C6F860800E
:1014D00004D0FFF767FC044638E034E0FFF762FC15
:1014E000074604E0FFF75EFCC01B02282BD82868E3
:1014F0008001F7D4206AB0F5803F05D16868A16803
:1015000020F4003008436860D4E9080108436968A2
:1015100021F4741108436860C6F86090FFF742FC3C
:10152000044606E025E000BFFFF73CFC001B022854
:1015300009D828688001F7D51BE000BFFFF732FC0F
:10154000001B022802D90320BDE8F88F286880011B
:10155000F4D40EE00128F7D06868226A00F48031E4
:10156000914204D1616A00F47010884201D00120D8
:10157000EAE70020E8E700000010024000004242D5
:1015800080044242180000200070004010B5401E48
:10159000B0F1807F01D3012010BD4FF0E0246061E5
:1015A0000F21601700F0E7FC0020A06107202061F8
:1015B000002010BD7047704770B590F83C20012A9C
:1015C00023D0012480F83C40022280F83D200368AB
:1015D0005A689D6822F070060A6832435A600C4BC4
:1015E00002689A4205D0B2F1804F02D0094B9A426C
:1015F00004D1496825F080031943916080F83D408B
:10160000002180F83C10084670BD022070BD00002B
:10161000002C01400004004010B5040003D094F8F1
:101620003D0010B107E0012010BD002084F83C000F
:10163000204600F01FF8022084F83D00211D20689C
:1016400000F0A6FB012084F8460084F83E0084F8F0
:101650003F0084F8400084F8410084F8420084F898
:10166000430084F8440084F8450084F83D000020DD
:1016700010BD000008B5114A01681148914208D117
:10168000816941F400618161806900F4006000902B
:1016900008BDB1F1804FFBD1C16941F00101C161C9
:1016A000C069002200F00100009011461C20FFF7E5
:1016B000E5FBBDE808401C20FFF7D2BB002C014031
:1016C0000010024090F83D10012901D00120704720
:1016D000022180F83D100168CA6842F00102CA6028
:1016E00000680A49884205D0B0F1804F02D008490D
:1016F000884204D1816801F00701062903D00168FE
:1017000041F001010160002070470000002C014001
:101710000004004070B5044690F83C00012817D042
:10172000012584F83C50022084F83D00206882683E
:1017300022F0770222F47F4282600868502830D07D
:101740000DDC20284DD005DC98B310283BD148E0B3
:10175000022070BD302844D0402834D139E06028C0
:1017600028D0702806D0B0F5805F2CD0B0F5005F8F
:1017700029D10AE0CB68D1E90121206800F036FBCD
:101780002068816841F0770109E0CB68D1E9012147
:10179000206800F02BFB2068816841F48041816063
:1017A00011E0CA684968206800F032FB50212068C7
:1017B00007E016E0CA684968206800F03AFB60213B
:1017C000206800F01DFB84F83D50002084F83C00A8
:1017D00070BDCA684968206800F01AFB4021206883
:1017E000EFE7226801461046EBE7704770B5044604
:1017F000006801694FF00005C943890715D4C16825
:10180000C943890711D4E91E0161012020772068AE
:1018100080698007204602D0FFF7E7FF04E000F070
:1018200098F8204600F096F8257720680169C943AA
:10183000490717D4C168C943490713D46FF004019D
:101840000161022020772068806910F4407F2046E3
:1018500002D0FFF7CAFF04E000F07BF8204600F05A
:1018600079F8257720680169C943090716D4C1684A
:10187000C943090712D46FF00801016104202077E1
:101880002068C0698007204602D0FFF7AEFF04E061
:1018900000F05FF8204600F05DF8257720680169C8
:1018A000C943C90617D4C168C943C90613D46FF028
:1018B00010010161082020772068C06910F4407F82
:1018C000204602D0FFF791FF04E000F042F82046E6
:1018D00000F040F8257720680169C943C90708D19D
:1018E000C168C943C90704D1891E0161204600F0BF
:1018F00033F820680169C943090609D4C168C9439E
:10190000090605D46FF0800101612046FFF752FE01
:1019100020680169C943490609D4C168C943490619
:1019200005D46FF040010161204600F01DF82068E9
:101930000169C94389060BD4C168C943890607D424
:101940006FF0200101612046BDE87040FFF733BE13
:1019500070BD70477047000002484168491C4160F3
:101960007047000000000020704770B5040004D0EC
:1019700094F83D00002510B106E0012070BD84F808
:101980003C50204600F022F8242084F83D002068D6
:10199000C16821F40051C160204600F05DFA206862
:1019A000016921F4904101612068416921F02A0117
:1019B00041612068C16841F40051C1602564202064
:1019C00084F83D0084F83E00002070BD30B585B03D
:1019D00000240094019402940394006814498842FE
:1019E00024D11448816941F480418161816901F405
:1019F00080410491816941F00401816180690E4D4B
:101A000000F0040004904FF4007000900220019058
:101A10000320039069462846FFF7D6F82815CDE93C
:101A20000004694628460294FFF7CEF805B030BDA1
:101A30000038014000100240000801402DE9F84341
:101A4000044690F83D001F4616460D4620284CD10E
:101A5000C5B1BEB194F83C00012846D0012084F8FD
:101A60003C004FF00008C4F84080212084F83D007D
:101A7000FFF798F9A6848146E684A068B0F5805FF8
:101A800003D004E00120BDE8F883206928B12E4688
:101A90005FF0000584F83C800EE00026FAE7802124
:101AA000204600F035FAA0B9AEB116F8010B216856
:101AB0004860E08C401EE084E08C4B464FF0000212
:101AC00000970028EBD14FF04001204600F020FAAB
:101AD00030B10320D7E735F8020BC0F30800E6E782
:101AE000202084F83D000020CDE70220CBE7FEE770
:101AF0003EB5002411480094019402940E4984607C
:101B0000016004730475012505614FF46021446090
:101B1000C161FEF747FE08B172B6FEE703200094EC
:101B2000CDE9015069460548FEF7BAFD002801D00D
:101B300072B6FEE73EBD0000002401401C000020FC
:101B40002DE9F04385B000243548009401940294B7
:101B50000394816941F020018161816901F02001D4
:101B60000491816941F004018161816901F00401FE
:101B70000491816941F0080181618069294F00F079
:101B8000080004900022FC213846FFF705F9DFF831
:101B900098904FF21808002241464846FFF7FCF89B
:101BA000FC200126CDE90006022569463846CDE92C
:101BB0000245FFF709F81D4F0320CDE900076946EC
:101BC00002954846FFF700F8CDE900866946484689
:101BD000CDE90245FEF7F8FF6020CDE90007694630
:101BE00002944846FEF7F0FF002211460620FFF758
:101BF00045F90620FFF734F9002211460720FFF7C8
:101C00003DF90720FFF72CF9002201211720FFF7EB
:101C100035F91720FFF724F905B0BDE8F08300007F
:101C20000010024000080140000C014000001110AB
:101C300010B586B0002417480094019402940394D0
:101C400004941349059401605A21C0E901144FF628
:101C5000FF71C0E9031444618461FFF7DDFC08B142
:101C600072B6FEE74FF48050009069460948FFF7CE
:101C700051FD08B172B6FEE7049404A90548059425
:101C8000FFF79AFC002801D072B6FEE706B010BD3F
:101C9000002C01404C00002010B586B000241648EE
:101CA000009401940294039404944FF080410594AD
:101CB000C0E900144FF6FF71C0E90241046184617C
:101CC000FFF7AAFC08B172B6FEE74FF4805000900F
:101CD00069460948FFF71EFD08B172B6FEE7049495
:101CE00004A905480594FFF767FC002801D072B6E7
:101CF000FEE706B010BD000094000020FEE7FEE7FE
:101D000070477047FFF754B830B593B02821684644
:101D1000FEF759FB14210AA8FEF755FB0024022503
:101D200001200F94049000951020059012944FF418
:101D3000E010CDE908401194109407956846FFF72C
:101D400095FA08B172B6FEE70F20CDE90A054FF407
:101D50008060CDE90C4001210AA80E94FFF79AF9A2
:101D600008B172B6FEE74FF4004011900F950FA82E
:101D7000FFF71AF9002801D072B6FEE713B030BDA4
:101D8000704700000148FFF731BD000094000020BB
:101D900070B50268134B144C4FF08046984203D044
:101DA000B04201D0A04203D122F070054A682A4314
:101DB000984203D0B04201D0A04203D122F4407433
:101DC000CA6822434C6922F08002224302608A687A
:101DD000C2620A688262984201D1096901630121E5
:101DE000416170BD002C01400004004010B58468C2
:101DF00042EA032224F47F440A432243826010BD56
:101E0000826822F070020A4342F007018160704745
:101E100010B5036A046A24F001040462846924F0A2
:101E2000F00444EA021423F00A020A4384610262C5
:101E300010BD10B5036A23F0100303628369046ABE
:101E400023F4704343EA023224F0A00343EA011171
:101E50008261016210BD000070B50446006801692E
:101E6000E26821F44051114301612169A0680843EF
:101E7000616908432168CA6841F20C639A430243CE
:101E8000CA6020684169A26921F44071114341612F
:101E90001E492068884202D1FFF7A2F901E0FFF74E
:101EA0008FF900EBC00101EB001260686421800033
:101EB000B2FBF0F3B3FBF1F36FF018067343B2FB20
:101EC000F0F5B2FBF0F605EB8305322303EB0515C5
:101ED000B5FBF1F5B6FBF1F605F0F00505EB0615DF
:101EE000B2FBF0F6B2FBF0F0B0FBF1F06FF01802CD
:101EF000504306EB800003EB0010B0FBF1F02168CB
:101F000000F00F002844886070BD000000380140D8
:101F10002DE9F041984617460E460446069D1DE001
:101F2000681C1BD02DB1FEF73DFFA0EB0800A842B6
:101F300014D92068C16821F4D071C160206841695A
:101F400021F001014161202084F83D0084F83E0029
:101F5000002084F83C000320BDE8F0812068006880
:101F600036EA000004D00020B842D9D00020F3E7C0
:101F70000120F9E7FEE70907090E002804DB00F15C
:101F8000E02080F80014704700F00F0000F1E0201E
:101F900080F8141D704700002DE9F04F364A0346C3
:101FA000106840F00800106033494FF00408083111
:101FB000C1F8008010240C6020250D6040260E60C2
:101FC00080270F6000F0DAF8106840F0040010601D
:101FD0002A4AD80601D5146002E04FF48010106040
:101FE00098064FF4001901D5156001E0C2F8009081
:101FF00058064FF4800A01D5166001E0C2F800A02F
:1020000018064FF4000B01D5176001E0C2F800B0CC
:1020100000F0B4F8C1F800800C600D600E600F6035
:1020200000F0ACF81448D0F800C04CF0040CC0F834
:1020300000C0D80701D0146002E04FF48010106097
:10204000980701D5156001E0C2F80090580701D546
:10205000166001E0C2F800A0180701D5176001E082
:10206000C2F800B000F08AF8C1F800800C600D6082
:102070000E600F60BDE8F08F0C08014010080140B1
:1020800010B5012000F006F8BDE810400220FEF770
:102090005BBD00002DE9F04F37490346082008607A
:1020A0004FF00409C1F8009010240C6020250D6049
:1020B00040260E6080270F6000F060F8DFF8B880DF
:1020C000A8F10808D8F8002042F00402C8F800205F
:1020D000D8064FF4801A08F1040201D5146001E01B
:1020E000C2F800A098064FF4001B01D5156001E06E
:1020F000C2F800B0580601D5166002E04FF4800027
:102100001060180601D5176002E04FF4000010605F
:1021100000F034F8C1F800900C600D600E600F60A4
:1021200000F02CF8D8F800C04CF0040CC8F800C03F
:10213000D80701D0146001E0C2F800A0980701D5CB
:10214000156001E0C2F800B0580701D5166002E042
:102150004FF480001060180701D5176002E04FF4BB
:102160000000106000F00AF8C1F800900C600D60EB
:102170000E600F60BDE8F08F140801404FF47A70D4
:10218000401EFDD17047012805D0022805D1BF317E
:10219000C8B2FFF77FBF7F31FAE7704770B50646D8
:1021A00014460D46FA20FEF7CFFC0220FFF772FF1F
:1021B0003220FEF7C9FC2E43264346F02000FFF7ED
:1021C00069FF3220FEF7C0FC0620FFF763FF3220D4
:1021D000FEF7BAFC0E20FFF75DFF3220FEF7B4FCDD
:1021E0000C20FFF757FF3220FEF7AEFC0120FFF76F
:1021F00051FFBDE870406420FEF7A6BC10B5044650
:1022000006E000BFFFF7BAFF14F8010BFFF7C4FEAA
:1022100020780028F6D1BDE81040FFF7AFBF10B519
:102220001446FFF7B0FF2046BDE81040FFF7E6BFB9
:10223000A0B0FEF7C5FDFFF767FDFFF781FCFFF7D4
:1022400057FC76487449002701604FF4E131C0E93A
:1022500001170C21C760C0E904718761C761FFF7EE
:1022600084FB08B172B6FEE7FFF716FDFFF7E0FC4E
:102270006A484838FFF726FA002108220846FFF787
:102280008DFF012166A20846FFF7C9FF6420FEF713
:102290005BFCFFF7F5FEDFF88481664D08F144082A
:1022A0002C464FF0FF365D49C8F800704431A1F567
:1022B0008270FEF7F5F95948C038FEF7CBFB574856
:1022C0000521C038FEF728FB18BB5448C038FEF77C
:1022D00065FA4FF4FA714843000BA0603220FEF714
:1022E00033FCFFF7CDFE202118A8FEF76CF852A1B1
:1022F00018A8A268FDF772FF012150A20846FFF757
:102300008EFF18AA0D210120FFF789FF3220FEF76A
:102310001BFC4248C038FEF7FDFB3220FEF714FCE0
:10232000202108A8FEF74FF8687808B146A300E01E
:1023300046A3287808B144A200E044A244A108A81A
:10234000FDF74CFF08AA01210220FFF768FF2021BA
:1023500010A8FEF738F842A110A86268FDF73EFF0A
:1023600010AA01210420FFF75AFF3220FEF7ECFBF0
:1023700020216846FEF727F83FA16846A268FDF7CE
:102380002DFF6846FEF700F882B2334669462348BF
:10239000FFF754FB20216846FEF715F8287808B1AE
:1023A00029A200E029A23BA16846FDF717FF684675
:1023B000FDF7EAFF82B2334669461848FFF73EFB55
:1023C00020216846FDF7FFFF687808B11EA200E0F3
:1023D0001EA233A16846FDF701FF6846FDF7D4FF52
:1023E00082B2334669460D48FFF728FB2021684634
:1023F000FDF7E9FF2DA168466268FDF7EFFE68462C
:10240000FDF7C2FF82B2334669460448FFF716FB68
:102410000A20FEF799FB46E700380140DC00002067
:10242000446973706C6179696E672056616C75657B
:102430007300000000000020256C750054656D706D
:1024400065726174757265004F4E00004F4646001C
:102450004C616D70733A20257320257300000000D5
:10246000202020202020202054696D65205469639D
:102470006B3A20256400000054656D7065726174CC
:102480007572653D256C752043656C636975730DC8
:102490000A0000004C616D70303D2573200D0A006C
:1024A0004C616D70313D2573200D0A0054696D65D6
:1024B0005469636B3D256420730D0A000000000021
:1024C00000000000010203040607080900000000E4
:1024D00001020304F4240008000000201C00000096
:1024E00028010008102500081C00002074070000C7
:1024F000440100080000000000000000000000008F
:102500000100000010000000000000000024F400A2
:04000005080000ED02
:00000001FF
