:020000040800F2
:1000000000280020BD180008F5170008FB1700089D
:1000100001180008071800080D180008000000006B
:10002000000000000000000000000000131800089D
:100030001F180008000000002B18000837180008DF
:100040000519000805190008051900080519000818
:100050000519000805190008051900080519000808
:1000600005190008051900080519000805190008F8
:1000700005190008051900080519000805190008E8
:1000800005190008051900080519000805190008D8
:1000900005190008051900080519000805190008C8
:1000A00005190008051900080519000805190008B8
:1000B00005190008051900080000000005190008CE
:1000C00005190008000000000000000005190008E4
:1000D00000000000051900080519000800000000D4
:1000E000051900080519000805190008000000009E
:1000F0000000000000000000000000000000000000
:0C01000000000000000000005FF808F1A3
:1001100010B5054C237833B9044B13B10448AFF341
:1001200000800123237010BD70000020000000003B
:10013000C83E000808B5034B1BB103490348AFF3A1
:10014000008008BD0000000074000020C83E0008C8
:10015000034613F8012B002AFBD1181A0138704707
:1001600081F0004102E000BF83F0004330B54FEA68
:1001700041044FEA430594EA050F08BF90EA020FD5
:100180001FBF54EA000C55EA020C7FEA645C7FEA68
:10019000655C00F0E2804FEA5454D4EB5555B8BF8B
:1001A0006D420CDD2C4480EA020281EA030382EAFC
:1001B000000083EA010180EA020281EA0303362D8E
:1001C00088BF30BD11F0004F4FEA01314FF4801C61
:1001D0004CEA113102D0404261EB410113F0004F73
:1001E0004FEA03334CEA133302D0524263EB43032A
:1001F00094EA050F00F0A780A4F10104D5F1200EC8
:100200000DDB02FA0EFC22FA05F2801841F1000122
:1002100003FA0EF2801843FA05F359410EE0A5F1F6
:1002200020050EF1200E012A03FA0EFC28BF4CF027
:10023000020C43FA05F3C01851EBE37101F00045DD
:1002400007D54FF0000EDCF1000C7EEB00006EEBEA
:100250000101B1F5801F1BD3B1F5001F0CD3490874
:100260005FEA30004FEA3C0C04F101044FEA4452CB
:1002700012F5800F80F09A80BCF1004F08BF5FEA52
:10028000500C50F1000041EB045141EA050130BD32
:100290005FEA4C0C404141EB0101013C28BFB1F544
:1002A000801FE9D291F0000F04BF01460020B1FA8F
:1002B00081F308BF2033A3F10B03B3F120020CDA62
:1002C0000C3208DD02F1140CC2F10C0201FA0CF040
:1002D00021FA02F10CE002F11402D8BFC2F1200CA5
:1002E00001FA02F120FA0CFCDCBF41EA0C0190405B
:1002F000E41AA2BF01EB0451294330BD6FEA0404A4
:100300001F3C1CDA0C340EDC04F11404C4F120028E
:1003100020FA04F001FA02F340EA030021FA04F3A0
:1003200045EA030130BDC4F10C04C4F1200220FAF7
:1003300002F001FA04F340EA0300294630BD21FA35
:1003400004F0294630BD94F0000F83F4801306BFFB
:1003500081F480110134013D4EE77FEA645C18BFEF
:100360007FEA655C29D094EA050F08BF90EA020F86
:1003700005D054EA000C04BF1946104630BD91EA7E
:10038000030F1EBF0021002030BD5FEA545C05D181
:100390004000494128BF41F0004130BD14F58004C0
:1003A0003CBF01F5801130BD01F0004545F0FE4134
:1003B00041F470014FF0000030BD7FEA645C1ABF69
:1003C000194610467FEA655C1CBF0B46024650EAA0
:1003D000013406BF52EA033591EA030F41F40021CC
:1003E00030BD00BF90F0000F04BF0021704730B552
:1003F0004FF4806404F132044FF000054FF0000127
:1004000050E700BF90F0000F04BF0021704730B5E7
:100410004FF4806404F1320410F0004548BF4042BC
:100420004FF000013EE700BF42004FEAE2014FEA11
:1004300031014FEA02701FBF12F07F4393F07F4FEC
:1004400081F06051704732F07F4208BF704793F0EF
:100450007F4F04BF41F40021704730B54FF4607402
:1004600001F0004521F000411CE700BF50EA010205
:1004700008BF704730B54FF000050AE050EA0102AE
:1004800008BF704730B511F0004502D5404261EB1E
:1004900041014FF4806404F132045FEA915C3FF45F
:1004A000D8AE4FF003025FEADC0C18BF03325FEAFC
:1004B000DC0C18BF033202EBDC02C2F1200300FAAD
:1004C00003FC20FA02F001FA03FE40EA0E0021FAD2
:1004D00002F11444BDE600BF70B54FF0FF0C4CF4C0
:1004E000E06C1CEA11541DBF1CEA135594EA0C0F72
:1004F00095EA0C0F00F0DEF82C4481EA030621EAAD
:100500004C5123EA4C5350EA013518BF52EA0335E7
:1005100041F4801143F4801338D0A0FB02CE4FF099
:100520000005E1FB02E506F00042E0FB03E54FF0C9
:100530000006E1FB03569CF0000F18BF4EF0010EC1
:10054000A4F1FF04B6F5007F64F5407404D25FEABD
:100550004E0E6D4146EB060642EAC62141EA555170
:100560004FEAC52040EA5E504FEACE2EB4F1FD0CB2
:1005700088BFBCF5E06F1ED8BEF1004F08BF5FEA30
:10058000500E50F1000041EB045170BD06F00046E2
:1005900046EA010140EA020081EA0301B4EB5C048F
:1005A000C2BFD4EB0C0541EA045170BD41F4801187
:1005B0004FF0000E013C00F3AB8014F1360FDEBFAC
:1005C000002001F0004170BDC4F10004203C35DA88
:1005D0000C341BDC04F11404C4F1200500FA05F30B
:1005E00020FA04F001FA05F240EA020001F00042AC
:1005F00021F0004110EBD37021FA04F642EB060122
:100600005EEA430E08BF20EAD37070BDC4F10C044B
:10061000C4F1200500FA04F320FA05F001FA04F20F
:1006200040EA020001F0004110EBD37041F10001FB
:100630005EEA430E08BF20EAD37070BDC4F1200506
:1006400000FA05F24EEA020E20FA04F301FA05F26E
:1006500043EA020321FA04F001F0004121FA04F216
:1006600020EA020000EBD3705EEA430E08BF20EAE6
:10067000D37070BD94F0000F0FD101F00046400020
:1006800041EB010111F4801F08BF013CF7D041EAA2
:10069000060195F0000F18BF704703F000465200A6
:1006A00043EB030313F4801F08BF013DF7D043EA77
:1006B0000603704794EA0C0F0CEA135518BF95EA2D
:1006C0000C0F0CD050EA410618BF52EA4306D1D1B4
:1006D00081EA030101F000414FF0000070BD50EAD3
:1006E000410606BF1046194652EA430619D094EA5D
:1006F0000C0F02D150EA013613D195EA0C0F05D147
:1007000052EA03361CBF104619460AD181EA03019A
:1007100001F0004141F0FE4141F470014FF0000052
:1007200070BD41F0FE4141F4780170BD70B54FF0ED
:10073000FF0C4CF4E06C1CEA11541DBF1CEA13556D
:1007400094EA0C0F95EA0C0F00F0A7F8A4EB05044F
:1007500081EA030E52EA03354FEA013100F0888046
:100760004FEA03334FF0805545EA131343EA12630F
:100770004FEA022245EA111545EA10654FEA0026C4
:100780000EF000419D4208BF964244F1FD0404F57D
:10079000407402D25B084FEA3202B61A65EB0305D9
:1007A0005B084FEA32024FF480104FF4002CB6EB96
:1007B000020E75EB030E22BFB61A754640EA0C0016
:1007C0005B084FEA3202B6EB020E75EB030E22BF56
:1007D000B61A754640EA5C005B084FEA3202B6EB97
:1007E000020E75EB030E22BFB61A754640EA9C0056
:1007F0005B084FEA3202B6EB020E75EB030E22BF26
:10080000B61A754640EADC0055EA060E18D04FEAE3
:10081000051545EA16754FEA06164FEAC30343EA83
:1008200052734FEAC2025FEA1C1CC0D111F4801F50
:100830000BD141EA00014FF000004FF0004CB6E749
:1008400011F4801F04BF01430020B4F1FD0C88BFE8
:10085000BCF5E06F3FF6AFAEB5EB030C04BFB6EBF3
:10086000020C5FEA500C50F1000041EB045170BDE6
:100870000EF0004E4EEA113114EB5C04C2BFD4EB13
:100880000C0541EA045170BD41F480114FF0000E97
:10089000013C90E645EA060E8DE60CEA135594EA13
:1008A0000C0F08BF95EA0C0F3FF43BAF94EA0C0F16
:1008B0000AD150EA01347FF434AF95EA0C0F7FF48B
:1008C00025AF104619462CE795EA0C0F06D152EADF
:1008D00003353FF4FDAE1046194622E750EA4106C3
:1008E00018BF52EA43067FF4C5AE50EA41047FF4D4
:1008F0000DAF52EA43057FF4EBAE12E74A0011D286
:1009000012F5001211D20DD56FF47873B3EB625269
:100910000ED44FEAC12343F0004343EA505323FA75
:1009200002F070474FF00000704750EA013002D1EA
:100930004FF0FF3070474FF00000704780F00040EC
:1009400002E000BF81F0004142001FBF5FEA4103A7
:1009500092EA030F7FEA226C7FEA236C6AD04FEAA7
:100960001262D2EB1363C1BFD218414048404140EC
:10097000B8BF5B42192B88BF704710F0004F40F49E
:10098000000020F07F4018BF404211F0004F41F4BA
:10099000000121F07F4118BF494292EA030F3FD086
:1009A000A2F1010241FA03FC10EB0C00C3F1200399
:1009B00001FA03F100F0004302D5494260EB400028
:1009C000B0F5000F13D3B0F1807F06D340084FEA93
:1009D000310102F10102FE2A51D2B1F1004F40EB88
:1009E000C25008BF20F0010040EA030070474900F0
:1009F00040EB0000013A28BFB0F5000FEDD2B0FA8D
:100A000080FCACF1080CB2EB0C0200FA0CF0AABFAF
:100A100000EBC25052421843BCBFD040184370474D
:100A200092F0000F81F4000106BF80F40000013253
:100A3000013BB5E74FEA41037FEA226C18BF7FEA2A
:100A4000236C21D092EA030F04D092F0000F08BF6C
:100A50000846704790EA010F1CBF0020704712F053
:100A60007F4F04D1400028BF40F00040704712F192
:100A700000723CBF00F50000704700F0004343F0F7
:100A8000FE4040F4000070477FEA226216BF08462D
:100A90007FEA23630146420206BF5FEA412390EAF0
:100AA000010F40F4800070474FF0000304E000BFE6
:100AB00010F0004348BF40425FEA000C08BF704797
:100AC00043F0964301464FF000001CE050EA01025B
:100AD00008BF70474FF000030AE000BF50EA010270
:100AE00008BF704711F0004302D5404261EB41015D
:100AF0005FEA010C02BF84460146002043F0B64382
:100B000008BFA3F18053A3F50003BCFA8CF2083AA6
:100B1000A3EBC25310DB01FA02FC634400FA02FCAF
:100B2000C2F12002BCF1004F20FA02F243EB0200B6
:100B300008BF20F00100704702F1200201FA02FC18
:100B4000C2F1200250EA4C0021FA02F243EB02000B
:100B500008BF20EADC7070474FF0FF0C1CEAD0524F
:100B60001EBF1CEAD15392EA0C0F93EA0C0F6FD010
:100B70001A4480EA010C400218BF5FEA41211ED0EE
:100B80004FF0006343EA501043EA5111A0FB0131DA
:100B90000CF00040B1F5000F3EBF490041EAD371AF
:100BA0005B0040EA010062F17F02FD2A1DD8B3F12B
:100BB000004F40EBC25008BF20F00100704790F09A
:100BC000000F0CF0004C08BF49024CEA502040EAEC
:100BD00051207F3AC2BFD2F1FF0340EAC2507047B2
:100BE00040F400004FF00003013A5DDC12F1190FF0
:100BF000DCBF00F000407047C2F10002410021FA62
:100C000002F1C2F1200200FA02FC5FEA310040F179
:100C1000000053EA4C0308BF20EADC70704792F0F2
:100C2000000F00F0004C02BF400010F4000F013A2A
:100C3000F9D040EA0C0093F0000F01F0004C02BF25
:100C4000490011F4000F013BF9D041EA0C018FE794
:100C50000CEAD15392EA0C0F18BF93EA0C0F0AD09A
:100C600030F0004C18BF31F0004CD8D180EA0100C0
:100C700000F00040704790F0000F17BF90F0004F59
:100C8000084691F0000F91F0004F14D092EA0C0F3B
:100C900001D142020FD193EA0C0F03D14B0218BFCE
:100CA000084608D180EA010000F0004040F0FE4014
:100CB00040F40000704740F0FE4040F440007047B0
:100CC0004FF0FF0C1CEAD0521EBF1CEAD15392EA2F
:100CD0000C0F93EA0C0F69D0A2EB030280EA010C1F
:100CE00049024FEA402037D04FF0805343EA1111B8
:100CF00043EA10130CF000408B4238BF5B0042F116
:100D00007D024FF4000C8B4224BF5B1A40EA0C00BA
:100D1000B3EB510F24BFA3EB510340EA5C00B3EBEC
:100D2000910F24BFA3EB910340EA9C00B3EBD10FDA
:100D300024BFA3EBD10340EADC001B0118BF5FEA2C
:100D40001C1CE0D1FD2A3FF650AF8B4240EBC25055
:100D500008BF20F0010070470CF0004C4CEA502016
:100D60007F32C2BFD2F1FF0340EAC250704740F465
:100D700000004FF00003013A37E792F0000F00F057
:100D8000004C02BF400010F4000F013AF9D040EAD5
:100D90000C0093F0000F01F0004C02BF490011F469
:100DA000000F013BF9D041EA0C0195E70CEAD15361
:100DB00092EA0C0F08D142027FF47DAF93EA0C0F48
:100DC0007FF470AF084676E793EA0C0F04D14B022C
:100DD0003FF44CAF08466EE730F0004C18BF31F0DE
:100DE000004CCAD130F000427FF45CAF31F00043D8
:100DF0007FF43CAF5FE700BF80B483B000AF7860A2
:100E000002E07B68013B7B607B68002BF9D100BF6F
:100E100000BF0C37BD4680BC704780B500AF4FF4B3
:100E20007A70FFF7E9FF00BF80BD000080B582B097
:100E300000AF0346FB71574B08225A61554B042201
:100E40005A61544B10225A61524B20225A61514B25
:100E500040225A614F4B80225A61FFF7DEFF4D4B13
:100E6000DB684C4A43F00403D360FB7903F01003C2
:100E7000002B03D0474B10221A6103E0454B4FF47F
:100E800080121A61FB7903F02003002B03D0414B41
:100E900020221A6103E03F4B4FF400121A61FB79E4
:100EA00003F04003002B03D03A4B40221A6103E0C9
:100EB000384B4FF480021A6197F90730002B03DAA0
:100EC000344B80221A6103E0324B4FF400021A6166
:100ED000FFF7A3FF2F4B04225A612E4B10225A61B9
:100EE0002C4B20225A612B4B40225A61294B8022E5
:100EF0005A61FFF792FF274BDB68264A43F0040351
:100F0000D360FB7903F00103002B03D0214B1022A7
:100F10001A6103E01F4B4FF480121A61FB7903F052
:100F20000203002B03D01B4B20221A6103E0194B54
:100F30004FF400121A61FB7903F00403002B03D075
:100F4000144B40221A6103E0124B4FF480021A61E5
:100F5000FB7903F00803002B03D00E4B80221A61AB
:100F600003E00C4B4FF400021A61FFF756FF094BE8
:100F700004225A61074B10225A61064B20225A6103
:100F8000044B40225A61034B80225A6100BF08374C
:100F9000BD4680BD0008014080B582B000AF034669
:100FA000FB71594BDB68584A43F00803D360564B3A
:100FB00004225A61544B10225A61534B20225A6129
:100FC000514B40225A61504B80225A61FFF725FF56
:100FD0004D4BDB684C4A43F00403D360FB7903F0CC
:100FE0001003002B03D0484B10221A6103E0464B3C
:100FF0004FF480121A61FB7903F02003002B03D019
:10100000414B20221A6103E03F4B4FF400121A615A
:10101000FB7903F04003002B03D03B4B40221A61C5
:1010200003E0394B4FF480021A6197F90730002B27
:1010300003DA354B80221A6103E0334B4FF4000290
:101040001A61FFF7EAFE304B04225A612E4B102240
:101050005A612D4B20225A612B4B40225A612A4B58
:1010600080225A61FFF7D9FE274BDB68264A43F0FE
:101070000403D360FB7903F00103002B03D0224B60
:1010800010221A6103E0204B4FF480121A61FB79A1
:1010900003F00203002B03D01B4B20221A6103E054
:1010A000194B4FF400121A61FB7903F00403002B73
:1010B00003D0154B40221A6103E0134B4FF480021A
:1010C0001A61FB7903F00803002B03D00E4B80223A
:1010D0001A6103E00C4B4FF400021A61FFF79DFE0A
:1010E000094B04225A61084B10225A61064B2022F8
:1010F0005A61054B40225A61034B80225A6100BF5E
:101100000837BD4680BD00BF0008014080B582B0F1
:1011100000AF786008E0FFF780FE7B685A1C7A60B9
:101120001B781846FFF738FF7B681B78002BF2D13D
:10113000FFF773FE00BF0837BD4680BD80B582B0A3
:1011400000AF0346FB710B46BB7113467B71FA205F
:1011500000F03CFC0220FFF769FE322000F036FC74
:10116000FA79BB791343DAB27B791343DBB243F0EC
:101170002003DBB21846FFF759FE322000F026FCB0
:101180000620FFF753FE322000F020FC0E20FFF770
:101190004DFE322000F01AFC0C20FFF747FE3220F3
:1011A00000F014FC0120FFF741FE642000F00EFC6B
:1011B00000BF0837BD4680BD80B582B000AF034692
:1011C0000A46FB711346BB71FB79012B06D1BB7933
:1011D0007F33DBB21846FFF729FE08E0FB79022BCC
:1011E00005D1BB79413BDBB21846FFF71FFE00BFBC
:1011F0000837BD4680BD80B582B000AF03463A6077
:10120000FB710B46BB71BA79FB7911461846FFF7A3
:10121000D3FF3868FFF77AFF00BF0837BD4680BDAF
:1012200080B500AF0120FFF701FE022000F0CEFBE9
:1012300000BF80BD0000000080B588B000AF00F0A6
:1012400063FB00F01FF900F0D7F900F071F900F02E
:10125000A9F9082200210020FFF770FF7C4A012134
:101260000120FFF7C8FF642000F0B0FBFFF7D8FFB4
:10127000784B00221A607749774800F063FE764881
:1012800000F0A0FC0521744800F04AFD0346002B45
:1012900033D1714800F04AFE0346704A13606F4B29
:1012A0001B684FF4FA7202FB03F31B0B6B4A1360CB
:1012B000322000F08BFBFFF7B3FF00233B603B1DA8
:1012C00000221A605A609A60DA601A615A619A6163
:1012D000624B1A683B466249184602F0BBF9614A04
:1012E00001210120FFF787FF3B461A460D2101200F
:1012F000FFF781FF322000F069FB564B01221A6094
:101300005449554800F01EFE534800F05BFC05218F
:10131000514800F005FD0346002B57D14E4800F020
:1013200005FE0346504A13604F4B1B681846FFF7F3
:10133000BBFB03464FF08B411846FFF7C1FC034649
:101340001846FFF771F83EA3D3E90023FEF70EFF1E
:1013500002460B46104619463BA3D3E90023FFF78C
:10136000E5F902460B46104619464FF000023F4B86
:10137000FEF7FAFE02460B4610461946FFF7BEFA84
:101380000346394A1360322000F020FB00233B6003
:101390003B1D00221A605A609A60DA601A615A6135
:1013A0009A61314B1A683B462D49184602F052F9B2
:1013B0003B461A460D210220FFF71DFF2C4A012152
:1013C0000220FFF718FF642000F000FB264B1B688B
:1013D0001A462849284802F03DF92748FEF7B8FE8A
:1013E00003469AB24FF0FF332349244801F095FF9A
:1013F0000A2000F0EBFA00233B603B1D00221A603C
:101400005A609A60DA601A615A619A61134B1A68DD
:101410003B461B49184602F01DF93B461846FEF7AD
:1014200097FE03469AB239464FF0FF33134801F056
:1014300074FF0A2000F0CAFA1AE700BFAFF3008079
:1014400052B81E85EB51B83F3BDF4F8D976E823F00
:10145000E03E000830010020BC000020B800002061
:10146000F43E0008F83E00083C0100200000F03F78
:10147000043F0008103F000898000020EC00002006
:10148000283F000880B594B000AF07F12803282258
:101490000021184602F0D6F807F1140300221A6062
:1014A0005A609A60DA601A613B1D00221A605A6025
:1014B0009A60DA600223BB620123BB631023FB63E3
:1014C00002237B640023BB644FF48013FB6407F1A9
:1014D0002803184601F040F90346002B01D000F024
:1014E000C9F80F237B610223BB610023FB6100234A
:1014F0003B6200237B6207F114030021184601F0D0
:10150000ABFB0346002B01D000F0B4F802237B6054
:101510000023FB603B1D184601F038FD0346002BFD
:1015200001D000F0A7F800BF5037BD4680BD0000D5
:1015300080B500AF184B194A1A60174B00229A6009
:10154000154B00221A73144B00221A75124B4FF4DC
:101550006022DA61104B00225A600F4B01221A619F
:101560000D4800F057FA0346002B01D000F082F836
:101570000B4B00221A600A4B01225A60084B0322CF
:101580009A600749044800F0DDFC0346002B01D0B7
:1015900000F070F800BF80BDBC00002000240140B6
:1015A0003001002080B500AF114B124A1A60104B79
:1015B0004FF4E1325A600E4B00229A600C4B00222D
:1015C000DA600B4B00221A61094B0C225A61084B5E
:1015D00000229A61064B0022DA61054801F050FEB4
:1015E0000346002B01D000F045F800BF80BD00BFCE
:1015F000EC0000200038014080B586B000AF07F154
:10160000080300221A605A609A60DA60174B9B69DF
:10161000164A43F020039361144B9B6903F02003A7
:101620007B607B68114B9B69104A43F00403936114
:101630000E4B9B6903F004033B603B680022FC21D6
:101640000B4801F071F8FC23BB600123FB60002311
:101650003B6102237B6107F108031946044800F04F
:10166000E9FE00BF1837BD4680BD00BF0010024034
:101670000008014080B400AF72B600BFFEE7000072
:1016800080B485B000AF154B9B69144A43F0010349
:101690009361124B9B6903F00103BB60BB680F4B66
:1016A000DB690E4A43F08053D3610C4BDB6903F0D6
:1016B00080537B607B680A4B5B68FB60FB6823F0B0
:1016C000E063FB60FB6843F08063FB60044AFB68F7
:1016D000536000BF1437BD4680BC70470010024005
:1016E0000000014080B588B000AF786007F11003BA
:1016F00000221A605A609A60DA607B681B68144A9C
:10170000934221D1134B9B69124A43F400739361B6
:10171000104B9B6903F40073FB60FB680D4B9B69E6
:101720000C4A43F0040393610A4B9B6903F00403E2
:10173000BB60BB6803233B6103237B6107F110039C
:101740001946054800F076FE00BF2037BD4680BD33
:1017500000240140001002400008014080B588B01C
:1017600000AF786007F1100300221A605A609A6097
:10177000DA607B681B681C4A934231D11B4B9B6922
:101780001A4A43F480439361184B9B6903F48043E6
:10179000FB60FB68154B9B69144A43F0040393619B
:1017A000124B9B6903F00403BB60BB684FF40073EA
:1017B0003B6102237B610323FB6107F110031946A0
:1017C0000B4800F037FE4FF480633B6100237B61E0
:1017D0000023BB6107F110031946054800F02AFEFB
:1017E00000BF2037BD4680BD0038014000100240D8
:1017F0000008014080B400AFFEE780B400AFFEE710
:1018000080B400AFFEE780B400AFFEE780B400AF65
:10181000FEE780B400AF00BFBD4680BC704780B417
:1018200000AF00BFBD4680BC704780B400AF00BFB2
:10183000BD4680BC704780B500AF00F0ABF800BF7C
:1018400080BD000080B586B000AF7860144A154BAB
:10185000D31A7B617B693B61134B1B68002B02D160
:10186000114B124A1A60104B1A687B6813443A698C
:101870009A4207D201F0BCFE03460C221A604FF0D8
:10188000FF3309E0084B1B68FB60074B1A687B6855
:101890001344054A1360FB6818461837BD4680BDDF
:1018A00000280020000400008C00002078010020A7
:1018B00080B400AF00BFBD4680BC70470C480D49E6
:1018C0000D4A002302E0D458C4500433C4188C429B
:1018D000F9D30A4A0A4C002301E013600432A24201
:1018E000FBD3FFF7E5FF01F089FEFFF7A5FC70478A
:1018F0000000002070000020B83F000870000020A9
:1019000074010020FEE7000080B500AF084B1B68A3
:10191000074A43F010031360032000F057FD002036
:1019200000F008F8FFF7ACFE0023184680BD00BFAA
:101930000020024080B582B000AF7860124B1A6878
:10194000124B1B7819464FF47A73B3FBF1F3B2FBD9
:10195000F3F3184600F061FD0346002B01D001238C
:101960000EE07B680F2B0AD8002279684FF0FF3019
:1019700000F037FD064A7B681360002300E0012376
:1019800018460837BD4680BD000000200800002032
:101990000400002080B400AF054B1B781A46054BAD
:1019A0001B681344034A136000BFBD4680BC7047E8
:1019B000080000206001002080B400AF024B1B68CB
:1019C0001846BD4680BC70476001002080B584B0D9
:1019D00000AF7860FFF7F0FFB8607B68FB60FB68E2
:1019E000B3F1FF3F05D00A4B1B781A46FB6813443E
:1019F000FB6000BFFFF7E0FF0246BB68D31AFA683E
:101A00009A42F7D800BF00BF1037BD4680BD00BF67
:101A10000800002080B586B000AF78600023FB7519
:101A200000233B610023BB600023FB607B68002B2D
:101A300001D10123BEE07B689B68002B7B689B6A19
:101A4000002B09D17B680022DA627B68002283F8D0
:101A500024207868FFF746FE786800F0C5FB03464F
:101A6000FB757B689B6A03F01003002B40F09980A4
:101A7000FB7D002B40F095807B689B6A23F48853A4
:101A800023F0020343F002027B689A627B685A6883
:101A90007B68DB691A437B681B7B5B001343BA6876
:101AA0001343BB607B689B68B3F5807F03D07B6882
:101AB0009B68012B02D14FF4807300E000233A6948
:101AC00013433B617B681B7D012B19D17B681B7B1A
:101AD000002B09D17B689B69013B5A033B69134387
:101AE00043F400633B610BE07B689B6A43F0200298
:101AF0007B689A627B68DB6A43F001027B68DA628A
:101B00007B681B685B6823F469417B681B683A69E2
:101B10000A435A607B681B689A68284B13407A68AE
:101B20001268B9680B4393607B689B68B3F5807F4C
:101B300003D07B689B68012B04D17B681B69013B48
:101B40001B05FB607B681B68DB6A23F470017B6804
:101B50001B68FA680A43DA627B681B689A68184B4C
:101B60001340BA689A420BD17B680022DA627B6824
:101B70009B6A23F0030343F001027B689A6218E03A
:101B80007B689B6A23F0120343F010027B689A6221
:101B90007B68DB6A43F001027B68DA620123FB7534
:101BA00007E07B689B6A43F010027B689A6201231E
:101BB000FB75FB7D18461837BD4680BDFDF7E1FF7C
:101BC000FE0E1FFF80B584B000AF78600023FB736A
:101BD0007B6893F82430012B01D1022398E07B68C5
:101BE000012283F82420786800F0A4FA0346FB73EE
:101BF000FB7B002B40F087807B689B6A23F440735B
:101C000023F0010343F480727B689A627B681B684F
:101C1000414A934205D1414B5B6803F47023002B8A
:101C200015D17B689B6A23F480127B689A627B687B
:101C30001B685B6803F48063002B26D07B689B6A7B
:101C400023F4405343F480527B689A621DE07B6822
:101C50009B6A43F480127B689A627B681B682F4AF8
:101C6000934204D07B681B682B4A93420DD12B4BC7
:101C70005B6803F48063002B07D07B689B6A23F4C6
:101C8000405343F480527B689A627B689B6A03F4FA
:101C90008053002B06D07B68DB6A23F006027B684A
:101CA000DA6202E07B680022DA627B68002283F855
:101CB00024207B681B686FF002021A607B681B6837
:101CC0009B6803F46023B3F5602F13D17B681B6816
:101CD000114A934205D1114B5B6803F47023002B2A
:101CE00008D17B681B689A687B681B6842F4A00275
:101CF0009A600CE07B681B689A687B681B6842F4FA
:101D000080129A6003E07B68002283F82420FB7B2A
:101D100018461037BD4680BD002801400024014010
:101D200090B587B000AF7860396000237B610023F5
:101D3000FB6000233B61FFF73FFE78617B681B6817
:101D40009B6803F48073002B0BD07B689B6A43F085
:101D500020027B689A627B68002283F8242001239A
:101D6000D3E07B681B685B6803F48073002B31D180
:101D70007B681B68DB6A03F47003002B2AD121E027
:101D80003B68B3F1FF3F1DD03B68002B07D0FFF746
:101D900013FE02467B69D31A3A689A4212D27B68D4
:101DA0001B681B6803F00203002B0BD17B689B6A46
:101DB00043F004027B689A627B68002283F8242047
:101DC0000323A2E07B681B681B6803F00203002B5F
:101DD000D6D070E04F4B1C68022001F08DF903460D
:101DE000B4FBF3F27B681B6819694B4B0B40002B6B
:101DF00018D17B681B68D968484B0B40002B11D168
:101E00007B681B681969464B0B40002B08D17B6827
:101E10001B68D968434B0B40002B01D1142320E0F1
:101E200029231EE07B681B6819693D4B0B40002B82
:101E300006D17B681B68D9683A4B0B40002B0DD04C
:101E40007B681B681969384B0B40002B08D17B68F5
:101E50001B68D968344B0B40002B01D1542300E0A0
:101E6000FC2302FB03F33B6121E03B68B3F1FF3F3E
:101E70001AD03B68002B07D0FFF79EFD02467B6916
:101E8000D31A3A689A420FD2FB683A699A420BD940
:101E90007B689B6A43F004027B689A627B6800223D
:101EA00083F82420032330E0FB680133FB60FB68E8
:101EB0003A699A42D9D87B681B686FF012021A609F
:101EC0007B689B6A43F400727B689A627B681B683C
:101ED0009B6803F46023B3F5602F15D17B681B7BEF
:101EE000002B11D17B689B6A23F480727B689A6215
:101EF0007B689B6A03F48053002B05D17B689B6A47
:101F000043F001027B689A62002318461C37BD46E5
:101F100090BD00BF00000020244992242449920073
:101F200092244912922449004992240080B483B03B
:101F300000AF78607B681B68DB6C18460C37BD46C9
:101F400080BC704780B485B000AF786039600023F2
:101F5000FB730023BB607B6893F82430012B01D115
:101F60000223DCE07B68012283F824203B685B6865
:101F7000062B1CD87B681B68596B3B685A68134654
:101F80009B001344053B1F2202FA03F3DB43194075
:101F90003B6818683B685A6813469B001344053B2E
:101FA00000FA03F27B681B680A435A633CE03B6813
:101FB0005B680C2B1CD87B681B68196B3B685A68E4
:101FC00013469B001344233B1F2202FA03F3DB4317
:101FD00019403B6818683B685A6813469B001344D5
:101FE000233B00FA03F27B681B680A431A631BE079
:101FF0007B681B68D96A3B685A6813469B00134488
:10200000413B1F2202FA03F3DB4319403B68186887
:102010003B685A6813469B001344413B00FA03F2A5
:102020007B681B680A43DA623B681B68092B1CD972
:102030007B681B68D9683B681A6813465B001344C9
:102040001E3B072202FA03F3DB4319403B68986802
:102050003B681A6813465B0013441E3B00FA03F208
:102060007B681B680A43DA6019E07B681B681969A2
:102070003B681A6813465B001344072202FA03F315
:10208000DB4319403B6898683B681A6813465B005D
:10209000134400FA03F27B681B680A431A613B6829
:1020A0001B68102B03D03B681B68112B32D17B6857
:1020B0001B681D4A934225D17B681B689B6803F40B
:1020C0000003002B26D17B681B689A687B681B681D
:1020D00042F400029A603B681B68102B1AD1134B24
:1020E0001B68134AA2FB03239A0C13469B0013445C
:1020F0005B00BB6002E0BB68013BBB60BB68002BC0
:10210000F9D107E07B689B6A43F020027B689A6202
:102110000123FB737B68002283F82420FB7B184695
:102120001437BD4680BC70470024014000000020E9
:1021300083DE1B4380B584B000AF78600023FB6072
:102140000023BB607B681B689B6803F00103012BC5
:1021500040D07B681B689A687B681B6842F001026C
:102160009A601F4B1B681F4AA2FB03239B0CBB609A
:1021700002E0BB68013BBB60BB68002BF9D1FFF7F5
:102180001BFCF8601FE0FFF717FC0246FB68D31A40
:10219000022B18D97B681B689B6803F00103012B95
:1021A00011D07B689B6A43F010027B689A627B685F
:1021B000DB6A43F001027B68DA627B68002283F805
:1021C0002420012307E07B681B689B6803F0010360
:1021D000012BD8D1002318461037BD4680BD00BF63
:1021E0000000002083DE1B4380B584B000AF786020
:1021F0000023FB607B681B689B6803F00103012BD5
:102200002ED17B681B689A687B681B6822F00102EC
:102210009A60FFF7D1FBF8601BE0FFF7CDFB0246A9
:10222000FB68D31A022B14D97B681B689B6803F0E8
:102230000103012B0DD17B689B6A43F010027B6880
:102240009A627B68DB6A43F001027B68DA620123F1
:1022500007E07B681B689B6803F00103012BDCD05F
:10226000002318461037BD4680BD000080B485B0FD
:1022700000AF78607B6803F00703FB600C4BDB6802
:10228000BB60BA684FF6FF031340BB60FB681A02DD
:10229000BB68134343F0BF6343F40033BB60044A9D
:1022A000BB68D36000BF1437BD4680BC704700BF19
:1022B00000ED00E080B400AF044BDB681B0A03F0C4
:1022C00007031846BD4680BC704700BF00ED00E024
:1022D00080B483B000AF03463960FB7197F90730D3
:1022E000002B0ADB3B68DAB20C4997F90730120180
:1022F000D2B20B4483F800230AE03B68DAB2084903
:10230000FB7903F00F03043B1201D2B20B441A769F
:1023100000BF0C37BD4680BC704700BF00E100E045
:1023200000ED00E080B489B000AFF860B9607A6079
:10233000FB6803F00703FB61FB69C3F10703042B90
:1023400028BF0423BB61FB690433062B02D9FB6958
:10235000033B00E000237B614FF0FF32BB6902FAD0
:1023600003F3DA43BB681A407B699A404FF0FF31B0
:102370007B6901FA03F3D9437B680B40134318468A
:102380002437BD4680BC704780B582B000AF78600E
:102390007B68013BB3F1807F01D301230FE00A4A40
:1023A0007B68013B53600F214FF0FF30FFF790FF38
:1023B000054B00229A60044B07221A60002318463E
:1023C0000837BD4680BD00BF10E000E080B582B098
:1023D00000AF78607868FFF749FF00BF0837BD4657
:1023E00080BD80B586B000AF0346B9607A60FB73EC
:1023F00000237B61FFF75EFF78617A68B9687869CE
:10240000FFF790FF024697F90F3011461846FFF785
:102410005FFF00BF1837BD4680BD80B582B000AFFA
:1024200078607868FFF7B0FF034618460837BD4666
:1024300080BD000080B48BB000AF786039600023AD
:102440007B6200233B6248E101227B6A02FA03F3CC
:10245000FB613B681B68FA691340BB61BA69FB69A1
:102460009A4240F037813B685B68A34A93425ED052
:10247000A14A934275D8A14A934258D09F4A9342A9
:102480006FD89F4A934252D09D4A934269D89D4A41
:1024900093424CD09B4A934263D89B4A934246D086
:1024A000994A93425DD8122B2AD8122B59D801A2EF
:1024B00052F823F02F250008092500081B250008E5
:1024C0005D250008632500086325000863250008D2
:1024D00063250008632500086325000863250008BC
:1024E00063250008632500086325000863250008AC
:1024F000632500086325000811250008252500082C
:10250000824A934213D02CE03B68DB683B6229E0AF
:102510003B68DB6804333B6224E03B68DB680833DC
:102520003B621FE03B68DB680C333B621AE03B68B0
:102530009B68002B02D104233B6213E03B689B683D
:10254000012B05D108233B627B68FA691A6109E017
:1025500008233B627B68FA695A6103E000233B620F
:1025600000E000BFBB69FF2B01D87B6801E07B68FE
:1025700004337B61BB69FF2B02D87B6A9B0002E0BE
:102580007B6A083B9B003B617B691A680F213B69B2
:1025900001FA03F3DB431A40396A3B6901FA03F39A
:1025A0001A437B691A603B685B6803F08053002B19
:1025B00000F09080564B9B69554A43F001039361AC
:1025C000534B9B6903F00103BB60BB68514A7B6AB4
:1025D0009B08023352F82330FB607B6A03F003034D
:1025E0009B000F2202FA03F3DB43FA681340FB60FF
:1025F0007B68494A93420DD07B68484A934207D092
:102600007B68474A934201D1022304E0032302E09E
:10261000012300E000237A6A02F003029200934053
:10262000FA681343FB603B497B6A9B080233FA68F4
:1026300041F823203B685B6803F48033002B06D00D
:10264000384B1A683749BB6913430B6006E0354BBA
:102650001A68BB69DB43334913400B603B685B6816
:1026600003F40033002B06D02E4B5A682D49BB696A
:1026700013434B6006E02B4B5A68BB69DB43294987
:1026800013404B603B685B6803F48013002B06D05B
:10269000244B9A682349BB6913438B6006E0214BA6
:1026A0009A68BB69DB431F4913408B603B685B68DA
:1026B00003F40013002B06D01A4BDA681949BB69E2
:1026C0001343CB6006E0174BDA68BB69DB4315495F
:1026D0001340CB607B6A01337B623B681A687B6A7C
:1026E00022FA03F3002B7FF4AFAE00BF00BF2C37FC
:1026F000BD4680BC704700BF0000321000003110A2
:102700000000221000002110000012100000111023
:10271000001002400000014000080140000C014090
:10272000001001400004014080B483B000AF786025
:102730000B467B8013467B707B78002B03D07A8816
:102740007B681A6103E07B881A047B681A6100BF0A
:102750000C37BD4680BC704780B586B000AF78604E
:102760007B68002B01D101236CE27B681B6803F0BE
:102770000103002B00F08780924B5B6803F00C0391
:10278000042B0CD08F4B5B6803F00C03082B12D189
:102790008C4B5B6803F48033B3F5803F0BD1894BDE
:1027A0001B6803F40033002B6CD07B685B68002B44
:1027B00068D1012346E27B685B68B3F5803F06D1B0
:1027C000804B1B687F4A43F4803313602EE07B68A4
:1027D0005B68002B0CD17B4B1B687A4A23F4803357
:1027E0001360784B1B68774A23F4802313601DE045
:1027F0007B685B68B3F5A02F0CD1724B1B68714AE4
:1028000043F4802313606F4B1B686E4A43F480339C
:1028100013600BE06B4B1B686A4A23F48033136030
:10282000684B1B68674A23F4802313607B685B68EE
:10283000002B13D0FFF7C0F8386108E0FFF7BCF8B1
:1028400002463B69D31A642B01D90323FAE15D4B9D
:102850001B6803F40033002BF0D014E0FFF7ACF852
:10286000386108E0FFF7A8F802463B69D31A642BE9
:1028700001D90323E6E1534B1B6803F40033002B1B
:10288000F0D100E000BF7B681B6803F00203002B5F
:1028900063D04C4B5B6803F00C03002B0BD0494B0F
:1028A0005B6803F00C03082B1CD1464B5B6803F4F8
:1028B0008033002B16D1434B1B6803F00203002B1F
:1028C00005D07B681B69012B01D00123BAE13D4B88
:1028D0001B6823F0F8027B685B69DB00394913430E
:1028E0000B603AE07B681B69002B20D0364B01223D
:1028F0001A60FFF761F8386108E0FFF75DF80246FB
:102900003B69D31A022B01D903239BE12D4B1B6892
:1029100003F00203002BF0D02A4B1B6823F0F802CF
:102920007B685B69DB00274913430B6015E0264B8E
:1029300000221A60FFF740F8386108E0FFF73CF822
:1029400002463B69D31A022B01D903237AE11D4BBE
:102950001B6803F00203002BF0D17B681B6803F0B7
:102960000803002B3AD07B689B69002B19D0174BCA
:1029700001221A60FFF720F8386108E0FFF71CF821
:1029800002463B69D31A022B01D903235AE10D4BAE
:102990005B6A03F00203002BF0D0012000F0D8FAAC
:1029A0001CE00A4B00221A60FFF706F838610FE0BE
:1029B000FFF702F802463B69D31A022B08D903231A
:1029C00040E100BF00100240000042428004424249
:1029D0009E4B5B6A03F00203002BE9D17B681B6806
:1029E00003F00403002B00F0A6800023FB75974B37
:1029F000DB6903F08053002B0DD1944BDB69934AC4
:102A000043F08053D361914BDB6903F08053BB608B
:102A1000BB680123FB758E4B1B6803F48073002B8E
:102A200018D18B4B1B688A4A43F480731360FEF7FE
:102A3000C3FF386108E0FEF7BFFF02463B69D31AC7
:102A4000642B01D90323FDE0814B1B6803F48073E1
:102A5000002BF0D07B68DB68012B06D17B4B1B6A17
:102A60007A4A43F0010313622DE07B68DB68002B98
:102A70000CD1764B1B6A754A23F001031362734B2A
:102A80001B6A724A23F0040313621CE07B68DB6854
:102A9000052B0CD16D4B1B6A6C4A43F00403136287
:102AA0006A4B1B6A694A43F0010313620BE0674BF0
:102AB0001B6A664A23F001031362644B1B6A634A74
:102AC00023F0040313627B68DB68002B15D0FEF74C
:102AD00073FF38610AE0FEF76FFF02463B69D31AC5
:102AE00041F28832934201D90323ABE0574B1B6A72
:102AF00003F00203002BEED014E0FEF75DFF386117
:102B00000AE0FEF759FF02463B69D31A41F28832C8
:102B1000934201D9032395E04C4B1B6A03F0020357
:102B2000002BEED1FB7D012B05D1484BDB69474AD9
:102B300023F08053D3617B68DB69002B00F0818038
:102B4000424B5B6803F00C03082B61D07B68DB69A8
:102B5000022B46D13F4B00221A60FEF72DFF386151
:102B600008E0FEF729FF02463B69D31A022B01D980
:102B7000032367E0354B1B6803F00073002BF0D193
:102B80007B681B6AB3F5803F08D1304B5B6823F448
:102B900000327B689B682D4913434B602B4B5B686D
:102BA00023F474127B68196A7B685B6A0B432749BC
:102BB00013434B60274B01221A60FEF7FDFE38617C
:102BC00008E0FEF7F9FE02463B69D31A022B01D951
:102BD000032337E01D4B1B6803F00073002BF0D07C
:102BE0002FE01C4B00221A60FEF7E6FE386108E079
:102BF000FEF7E2FE02463B69D31A022B01D90323FA
:102C000020E0124B1B6803F00073002BF0D118E09A
:102C10007B68DB69012B01D1012313E00B4B5B685F
:102C2000FB60FB6803F480327B681B6A9A4206D122
:102C3000FB6803F470127B685B6A9A4201D001233F
:102C400000E0002318461837BD4680BD0010024042
:102C5000007000406000424280B584B000AF7860F0
:102C600039607B68002B01D10123D0E06A4B1B68DF
:102C700003F007033A689A4210D9674B1B6823F0A8
:102C8000070265493B6813430B60634B1B6803F005
:102C900007033A689A4201D00123B8E07B681B68B9
:102CA00003F00203002B20D07B681B6803F00403B1
:102CB000002B05D0594B5B68584A43F4E0635360DE
:102CC0007B681B6803F00803002B05D0534B5B683F
:102CD000524A43F460535360504B5B6823F0F00258
:102CE0007B689B684D4913434B607B681B6803F00E
:102CF0000103002B40D07B685B68012B07D1474B59
:102D00001B6803F40033002B15D101237FE07B689F
:102D10005B68022B07D1414B1B6803F00073002B4B
:102D200009D1012373E03D4B1B6803F00203002B24
:102D300001D101236BE0394B5B6823F003027B6810
:102D40005B68364913434B60FEF736FEF8600AE0D5
:102D5000FEF732FE0246FB68D31A41F288329342F4
:102D600001D9032353E02D4B5B6803F00C027B6811
:102D70005B689B009A42EBD1274B1B6803F007036B
:102D80003A689A4210D2244B1B6823F0070222496A
:102D90003B6813430B60204B1B6803F007033A6842
:102DA0009A4201D0012332E07B681B6803F00403E0
:102DB000002B08D0194B5B6823F4E0627B68DB686A
:102DC000164913434B607B681B6803F00803002B14
:102DD00009D0124B5B6823F460527B681B69DB00EF
:102DE0000E4913434B6000F021F802460B4B5B6821
:102DF0001B0903F00F030A49CB5C22FA03F3094ACB
:102E00001360094B1B681846FEF794FD0023184613
:102E10001037BD4680BD00BF0020024000100240B8
:102E2000643F0008000000200400002090B48AB035
:102E300000AF2A4B3C1D0FCB84E80F0040F201236A
:102E40003B800023FB610023BB6100237B620023E6
:102E50007B6100233B62224B5B68FB61FB6903F0F3
:102E60000C03042B02D0082B03D02DE01D4B3B623A
:102E70002DE0FB699B0C03F00F0307F128021344BC
:102E800013F8243C7B61FB6903F48033002B13D0DF
:102E9000134B5B685B0C03F0010307F1280213443A
:102EA00013F8283CBB617B690E4A02FB03F2BB6945
:102EB000B2FBF3F37B6204E07B690B4A02FB03F392
:102EC0007B627B6A3B6202E0064B3B6200BF3B6A6F
:102ED00018462837BD4690BC704700BF443F0008E5
:102EE0000010024000127A0000093D0080B400AFDB
:102EF000024B1B681846BD4680BC7047000000208E
:102F000080B500AFFFF7F2FF0246054B5B681B0A76
:102F100003F007030349CB5C22FA03F3184680BD94
:102F200000100240743F000880B500AFFFF7DEFFDD
:102F30000246054B5B68DB0A03F007030349CB5CE1
:102F400022FA03F3184680BD00100240743F0008C7
:102F500080B485B000AF78600A4B1B680A4AA2FBB8
:102F600003235B0A7A6802FB03F3FB6000BFFB6884
:102F70005A1EFA60002BF9D100BF00BF1437BD46BE
:102F800080BC704700000020D34D621080B586B031
:102F900000AF786000233B610023FB607B681B6807
:102FA00003F00103002B7DD00023FB754F4BDB6941
:102FB00003F08053002B0DD14C4BDB694B4A43F09F
:102FC0008053D361494BDB6903F08053BB60BB681E
:102FD0000123FB75464B1B6803F48073002B18D14B
:102FE000434B1B68424A43F480731360FEF7E4FCD2
:102FF000386108E0FEF7E0FC02463B69D31A642B17
:1030000001D903236DE03A4B1B6803F48073002B56
:10301000F0D0364B1B6A03F44073FB60FB68002B57
:103020002ED07B685B6803F44073FA689A4227D01D
:103030002E4B1B6A23F44073FB602E4B01221A6057
:103040002C4B00221A60294AFB681362FB6803F0CC
:103050000103002B14D0FEF7AFFC38610AE0FEF745
:10306000ABFC02463B69D31A41F28832934201D944
:10307000032336E01D4B1B6A03F00203002BEED046
:103080001A4B1B6A23F440727B685B681749134331
:103090000B62FB7D012B05D1144BDB69134A23F036
:1030A0008053D3617B681B6803F00203002B08D0B8
:1030B0000E4B5B6823F440427B689B680B491343CB
:1030C0004B607B681B6803F01003002B08D0074B94
:1030D0005B6823F480027B68DB68044913434B6020
:1030E000002318461837BD4680BD00BF00100240BF
:1030F000007000404004424290B58DB000AF78604F
:103100005A4B07F10C040FCB84E80F0040F2012367
:103110003B8100237B620023FB6200233B62002390
:10312000FB610023BB627B68102B0AD07B68102BED
:1031300000F291807B68012B4CD07B68022B7CD005
:1031400089E04B4B5B68FB61494B1B6803F0807364
:10315000002B00F08280FB699B0C03F00F0307F14A
:103160003002134413F8243C3B62FB6903F48033C0
:10317000002B18D03E4B5B685B0C03F0010307F19A
:103180003002134413F8283C7B62FB6903F480335C
:10319000002B0DD0374A7B6AB2FBF3F23B6A02FB8D
:1031A00003F3FB6204E03B6A334A02FB03F3FB6276
:1031B0002F4B5B6803F48003B3F5800F02D1FB6AE9
:1031C000BB624AE0FB6A5B002C4AA2FB03235B085C
:1031D000BB6242E0264B1B6AFB61FB6903F4407350
:1031E000B3F5807F08D1FB6903F00203002B03D005
:1031F0004FF40043BB621FE0FB6903F44073B3F577
:10320000007F09D11A4B5B6A03F00203002B03D045
:1032100049F64043BB620FE0FB6903F44073B3F52A
:10322000407F1CD1124B1B6803F40033002B16D0D7
:103230004FF22443BB6212E011E0FFF775FE024635
:103240000B4B5B689B0B03F0030301335B00B2FB8A
:10325000F3F3BB6204E000BF02E000BF00E000BF88
:10326000BB6A18463437BD4690BD00BF543F0008C6
:103270000010024000127A0000093D00ABAAAAAA81
:1032800080B582B000AF78607B68002B01D101234C
:103290003FE07B6893F83D30DBB2002B06D17B68C2
:1032A000002283F83C207868FEF758FA7B682422D5
:1032B00083F83D207B681B68DA687B681B6822F412
:1032C0000052DA60786800F005F97B681B681A69BB
:1032D0007B681B6822F490421A617B681B685A69FC
:1032E0007B681B6822F02A025A617B681B68DA68D7
:1032F0007B681B6842F40052DA607B6800221A6423
:103300007B68202283F83D207B68202283F83E20C2
:10331000002318460837BD4680BD80B58AB002AF8D
:10332000F860B9603B601346FB8000237B61FB685B
:1033300093F83D30DBB2202B7CD1BB68002B02D050
:10334000FB88002B01D1012375E0FB6893F83C302A
:10335000012B01D102236EE0FB68012283F83C209F
:10336000FB6800221A64FB68212283F83D20FEF7E7
:1033700023FB7861FB68FA889A84FB68FA88DA8410
:10338000FB689B68B3F5805F08D1FB681B69002B65
:1033900004D10023FB61BB68BB6103E0BB68FB6138
:1033A0000023BB61FB68002283F83C202AE03B68D5
:1033B00000937B6900228021F86800F040F8034602
:1033C000002B01D0032336E0FB69002B0BD1BB6936
:1033D0001B881A46FB681B68C2F308025A60BB6967
:1033E0000233BB6107E0FB691A78FB681B685A600F
:1033F000FB690133FB61FB68DB8C9BB2013B9AB23A
:10340000FB68DA84FB68DB8C9BB2002BCFD13B6876
:1034100000937B6900224021F86800F010F8034611
:10342000002B01D0032306E0FB68202283F83D2017
:10343000002300E0022318462037BD4680BD80B53A
:1034400084B000AFF860B9603B601346FB712CE0BC
:10345000BB69B3F1FF3F28D0BB69002B07D0FEF753
:10346000ABFA02463B68D31ABA699A421DD2FB688E
:103470001B68DA68FB681B6822F4D072DA60FB68AC
:103480001B685A69FB681B6822F001025A61FB68DD
:10349000202283F83D20FB68202283F83E20FB6831
:1034A000002283F83C2003230FE0FB681B681A68A6
:1034B000BB681340BA689A420CBF01230023DBB2F9
:1034C0001A46FB799A42C3D0002318461037BD46EE
:1034D00080BD000080B584B000AF78607B681B6859
:1034E0001B6923F440517B68DA687B681B680A43D8
:1034F0001A617B689A687B681B691A437B685B6901
:103500001343BB607B681B68DB6823F4B05323F074
:103510000C037A681268B9680B43D3607B681B6838
:103520005B6923F440717B689A697B681B680A4376
:103530005A617B681B682C4A934203D1FFF7F4FC65
:10354000F86002E0FFF7DCFCF860FA6813469B00C5
:1035500013449A001A447B685B689B00B2FBF3F348
:10356000224AA2FB03235B091901FA6813469B0058
:1035700013449A001A447B685B689B00B2FBF3F229
:103580001A4BA3FB02035B09642000FB03F3D31A6D
:103590001B013233154AA2FB03235B0903F0F0033E
:1035A0001944FA6813469B0013449A001A447B6836
:1035B0005B689B00B2FBF3F20C4BA3FB02035B09BD
:1035C000642000FB03F3D31A1B013233074AA2FB2A
:1035D00003235B0903F00F027B681B680A449A60AF
:1035E00000BF1037BD4680BD003801401F85EB513C
:1035F000014B1868704700BF0C00002070B5002612
:103600000C4D0D4C641BA410A64209D100F05CFCCB
:1036100000260A4D0A4C641BA410A64205D170BDB9
:1036200055F8043B98470136EEE755F8043B9847B8
:103630000136F2E7B03F0008B03F0008B03F000895
:10364000B43F000803460244934200D1704703F898
:10365000011BF9E70EB46FF0004100B59CB01DAB43
:1036600002900690079104910848094953F8042BE9
:103670000591006802A9019300F068F80022029BFE
:103680001A701CB05DF804EB03B070470C0000200A
:103690000802FFFF2DE9F0478E6882469E420C46E5
:1036A00090461F4638D88A8912F4906F32D0256828
:1036B00009690133A5EB010965694B4405EB450533
:1036C00005EBD5756D109D4238BF1D46530531D5AC
:1036D000294600F053FB064650B90C234FF0FF304B
:1036E000CAF80030A38943F04003A381BDE8F08706
:1036F0004A46216900F0CEFAA38923F4906343F08F
:103700008003A38126614E4426603E466561A5EB99
:103710000905A560BE4200D93E46324641462068B2
:1037200000F0C6FAA36822689B1B32440020A36005
:103730002260DBE72A4600F07BFB06460028E1D149
:103740005046216900F0CEFAC7E700002DE9F04F9E
:1037500098468B8907461B060D4614469DB00ED52C
:103760000B6963B9402100F009FB2860286120B98A
:103770000C233B604FF0FF30D1E040236B6100230E
:10378000099320238DF8293030234FF00109CDF81B
:103790000C80DFF8A4818DF82A3023469A4613F86E
:1037A000012B0AB1252AF9D1BAEB040B0BD05B46E9
:1037B000224629463846FFF76DFF013000F0AA8007
:1037C000099A5A4409929AF80030002B00F0A2801E
:1037D00000234FF0FF32CDE905230AF1010A0493DB
:1037E00007938DF853301A935446052214F8011BA1
:1037F000514800F041FA049AD8B9D00644BF2023BA
:103800008DF85330110744BF2B238DF853309AF8AD
:1038100000302A2B15D0544600204FF00A0C079A8E
:10382000214611F8013B303B092B4ED9B0B107922C
:1038300014E0A0EB080309FA03F31343A246049330
:10384000D2E7039B191D1B680391002BBBBF5B4292
:1038500042F0020207930793B8BF049223782E2BFD
:103860000CD163782A2B35D1039B02341A1D1B68B7
:103870000392002BB8BF4FF0FF330593DFF8C8A0C9
:1038800003225046217800F0F7F940B14023A0EB25
:103890000A0003FA00F0049B01340343049314F874
:1038A000011B062225488DF8281000F0E5F90028B4
:1038B00038D0234B1BBB039B073323F0070308338C
:1038C0000393099B3344099367E70C4601200CFBE3
:1038D0000232A5E700234FF00A0C19460134059384
:1038E000204610F8012B303A092A03D9002BC5D005
:1038F0000591C3E7044601230CFB0121F0E703AB6C
:1039000000932A4638460F4B04A9AFF30080421CAF
:103910000646D6D1AB895B063FF52CAF09981DB0A2
:10392000BDE8F08F03AB00932A463846054B04A947
:1039300000F07CF8EBE700BF7C3F0008863F000802
:103940000000000095360008823F00082DE9F0478E
:10395000164699468A680B6907469342B8BF1346D4
:10396000336091F843200C46DDF820800AB1013322
:1039700033602368990642BF336802333360256899
:1039800015F0060506D104F1190AE36832689B1A9E
:10399000AB4228DC94F84320131E226818BF012391
:1039A00092062DD44946384604F14302C0470130FF
:1039B00020D02368E56803F00603042B18BF002518
:1039C00032684FF00006A36808BFAD1A226908BF2D
:1039D00025EAE5759342C4BF9B1AED181A34B54227
:1039E0001AD1002008E00123524649463846C04714
:1039F000013003D14FF0FF30BDE8F0870135C4E757
:103A00003020E11881F843005A1C94F845102244F4
:103A1000023382F84310C5E701232246494638465F
:103A2000C0470130E6D00136D9E700002DE9FF4755
:103A30000C46277E9146782F80469A460C9904F1D1
:103A4000430207D8622F0AD8002F00F0D980582FE0
:103A500000F0A48004F1420684F842703AE0A7F135
:103A60006303152BF6D801A050F823F0C53A0008DF
:103A7000D93A0008553A0008553A0008553A000866
:103A8000553A0008D93A0008553A0008553A000856
:103A9000553A0008553A0008E73B0008093B000882
:103AA000C93B0008553A0008553A0008093C00088F
:103AB000553A0008093B0008553A0008553A0008F5
:103AC000D13B00080B6804F142061A1D1B680A600E
:103AD00084F842300123A4E0256808682E0600F12E
:103AE00004030AD505680B60002D03DA2D236D420F
:103AF00084F843300A235E4819E015F0400F05684A
:103B00000B6018BF2DB2EFE70B682568181D086021
:103B1000280601D51D6802E06906FBD51D886F2FB8
:103B20000CBF08230A235248002184F8431066681A
:103B3000002EA8BF2168A660A4BF21F00401216067
:103B40000DB9002E4DD01646B5FBF3F103FB11570E
:103B5000C75D06F8017D2F46BB420D46F4D9082B00
:103B60000BD12368DF0708D5236961689942DEBF5E
:103B7000302306F8013C06F1FF36921B22614B46CA
:103B800021464046CDF800A003AAFFF7DFFE013032
:103B90004CD14FF0FF3004B0BDE8F087344884F8D2
:103BA00045700E68236856F8045B1F060E6014D536
:103BB000D90744BF43F0200323601DB9236823F0D5
:103BC000200323601023AFE7236843F02003236022
:103BD0007823284884F84530E3E75E0648BFADB255
:103BE000E6E71646BBE70B6826681D1D60690D6099
:103BF00035061B6801D5186002E07106FBD51880F8
:103C0000002316462361BAE70B681A1D0A601E6876
:103C100000213046626800F02FF808B1801B606018
:103C200063682361002384F84330A8E7324649469D
:103C300040462369D0470130ABD023689B0713D49B
:103C4000E068039B9842B8BF1846A4E701233246B8
:103C500049464046D04701309BD00135E36803997F
:103C60005B1AAB42F2DCEBE7002504F11906F5E73D
:103C70008D3F00089E3F0008034610B5C9B20244BC
:103C80009342184601D1002003E0047801338C42AE
:103C9000F6D110BD0A44914200F1FF3300D17047C4
:103CA00010B511F8014B914203F8014FF9D110BD45
:103CB000884210B501EB020402D98442234607D89A
:103CC000431EA14208D011F8012B03F8012FF8E799
:103CD000014602448A4200D110BD13F8014D02F89A
:103CE000014DF7E738B50546002943D051F8043CAB
:103CF0000C1F002BB8BFE41800F0D0F81E4A136860
:103D0000104633B9636014602846BDE8384000F0BF
:103D1000CBB8A3420AD921686218934201BF1A683E
:103D20005B685218226063600460EDE71A465B68C6
:103D30000BB1A342FAD911685018A0420BD12068E8
:103D40000144501883421160DED118685B68014459
:103D500011605360D8E702D90C232B60D4E72068A8
:103D600021188B4201BF19685B68091821606360E4
:103D70005460C9E738BD00BF90000020F8B5CD1CE5
:103D800025F0030508350C2D38BF0C25002D0646FF
:103D900001DBA94203D90C2333600020F8BD00F0F9
:103DA0007DF821490A6814469CB9204F3B6823B925
:103DB0002146304600F062F838602946304600F06F
:103DC0005DF8431C23D10C233046336000F06CF8BF
:103DD000E3E723685B1B17D40B2B03D923601C4438
:103DE000256004E06368A2420CBF0B60536030465C
:103DF00000F05AF804F10B00231D20F00700C21A4E
:103E0000CCD01B1AA350C9E722466468CCE7C41C77
:103E100024F00304A042E3D0211A304600F02EF82B
:103E20000130DDD1CFE700BF9000002094000020DA
:103E3000F8B5074614460E4621B91146BDE8F840CC
:103E4000FFF79CBF22B9FFF74DFF25462846F8BD76
:103E500000F030F8A0420FD221463846FFF78EFF1F
:103E600005460028F2D031462246FFF713FF3146BF
:103E70003846FFF737FFE9E73546E7E738B500236F
:103E8000054D044608462B60FDF7DCFC431C02D1BF
:103E90002B6803B1236038BD64010020014800F0A5
:103EA00011B800BF6C010020014800F00CB800BF41
:103EB0006C01002051F8043C181F002BBCBF0B58AC
:103EC000C018704770477047F8B500BFF8BC08BC11
:103ED0009E467047F8B500BFF8BC08BC9E467047C8
:103EE000446973706C6179696E672056616C7565A1
:103EF00073000000256C750054656D706572617407
:103F0000757265005072657373757265000000000C
:103F100050726573737572653D256C7520506572BE
:103F200063656E740D0A000054656D70657261748E
:103F30007572653D256C752043656C636975730DFD
:103F40000A00000002030405060708090A0B0C0D0D
:103F50000E0F101002030405060708090A0B0C0DCA
:103F60000E0F10100000000000000000010203040A
:103F7000060708090000000001020304232D302B6E
:103F80002000686C4C00656667454647003031325A
:103F900033343536373839414243444546003031B1
:103FA0003233343536373839616263646566000010
:043FB00035010008CF
:043FB40011010008EF
:103FB8000024F400100000000100000010000020A0
:103FC80000000000000000000000000000000000E9
:103FD80000000000000000000000000000000000D9
:103FE80000000000000000000000000000000000C9
:103FF80000000000000000000000000000000000B9
:1040080000000000000000000000000000000000A8
:104018000000000000000000000000000000000098
:04000005080018BD1A
:00000001FF
